:020000040000fa
:080000000002040000000000f2
:020000040000fa
:04000800e20300000f
:020000040000fa
:04000c00e20300000b
:020000040000fa
:04001000e203000007
:020000040000fa
:04001400e203000003
:020000040000fa
:04001800e2030000ff
:020000040000fa
:04001c00e2030000fb
:020000040000fa
:04002000e2030000f7
:020000040000fa
:04002400e2030000f3
:020000040000fa
:04002800e2030000ef
:020000040000fa
:04002c00e2030000eb
:020000040000fa
:04003000e2030000e7
:020000040000fa
:04003400e2030000e3
:020000040000fa
:04003800e2030000df
:020000040000fa
:04003c00e2030000db
:020000040000fa
:04004000e2030000d7
:020000040000fa
:04004400e2030000d3
:020000040000fa
:04004800e2030000cf
:020000040000fa
:04004c00e2030000cb
:020000040000fa
:04005000e2030000c7
:020000040000fa
:04005400880300001d
:020000040000fa
:040058004003000061
:020000040000fa
:04005c00e2030000bb
:020000040000fa
:04006000e2030000b7
:020000040000fa
:04006400e2030000b3
:020000040000fa
:04006800e2030000af
:020000040000fa
:04006c00e2030000ab
:020000040000fa
:04007000e2030000a7
:020000040000fa
:04007400c6030000bf
:020000040000fa
:04007800e20300009f
:020000040000fa
:04007c00e20300009b
:020000040000fa
:04008000e203000097
:020000040000fa
:04008400e203000093
:020000040000fa
:04008800e20300008f
:020000040000fa
:04008c00e20300008b
:020000040000fa
:04009000e203000087
:020000040000fa
:04009400180300004d
:020000040000fa
:04009800e20300007f
:020000040000fa
:04009c00e20300007b
:020000040000fa
:0400a000e203000077
:020000040000fa
:0400a400e203000073
:020000040000fa
:0400a800e20300006f
:020000040000fa
:0400ac00e20300006b
:020000040000fa
:0400b000e203000067
:020000040000fa
:0400b400e203000063
:020000040000fa
:0400b800e20300005f
:020000040000fa
:0400bc00e20300005b
:020000040000fa
:0400c000e203000057
:020000040000fa
:0400c400e203000053
:020000040000fa
:0400c800e20300004f
:020000040000fa
:0400cc00e20300004b
:020000040000fa
:0400d000e203000047
:020000040000fa
:0400d400e203000043
:020000040000fa
:0400d800e20300003f
:020000040000fa
:0400dc00e20300003b
:020000040000fa
:0400e000e203000037
:020000040000fa
:0400e400e203000033
:020000040000fa
:0400e800e20300002f
:020000040000fa
:0400ec00e20300002b
:020000040000fa
:0400f000e203000027
:020000040000fa
:0400f400e203000023
:020000040000fa
:0400f800e20300001f
:020000040000fa
:0400fc00e20300001b
:020000040000fa
:04010000e203000016
:020000040000fa
:04010400e203000012
:020000040000fa
:04010800e20300000e
:020000040000fa
:04010c00e20300000a
:020000040000fa
:04011000e203000006
:020000040000fa
:04011400e203000002
:020000040000fa
:04011800e2030000fe
:020000040000fa
:04011c00e2030000fa
:020000040000fa
:04012000e2030000f6
:020000040000fa
:04012400e2030000f2
:020000040000fa
:04012800e2030000ee
:020000040000fa
:04012c00e2030000ea
:020000040000fa
:04013000e2030000e6
:020000040000fa
:04013400e2030000e2
:020000040000fa
:04013800e2030000de
:020000040000fa
:04013c00e2030000da
:020000040000fa
:04014000e2030000d6
:020000040000fa
:04014400e2030000d2
:020000040000fa
:04014800e2030000ce
:020000040000fa
:04014c00e2030000ca
:020000040000fa
:04015000e2030000c6
:020000040000fa
:04015400e2030000c2
:020000040000fa
:04015800e2030000be
:020000040000fa
:04015c00e2030000ba
:020000040000fa
:04016000e2030000b6
:020000040000fa
:04016400e2030000b2
:020000040000fa
:04016800e2030000ae
:020000040000fa
:04016c00e2030000aa
:020000040000fa
:04017000e2030000a6
:020000040000fa
:04017400e2030000a2
:020000040000fa
:04017800e20300009e
:020000040000fa
:04017c00e20300009a
:020000040000fa
:04018000e203000096
:020000040000fa
:04018400e203000092
:020000040000fa
:04018800e20300008e
:020000040000fa
:04018c00e20300008a
:020000040000fa
:04019000e203000086
:020000040000fa
:04019400e203000082
:020000040000fa
:04019800e20300007e
:020000040000fa
:04019c00e20300007a
:020000040000fa
:0401a000e203000076
:020000040000fa
:0401a400e203000072
:020000040000fa
:0401a800e20300006e
:020000040000fa
:0401ac00e20300006a
:020000040000fa
:0401b000e203000066
:020000040000fa
:0401b400e203000062
:020000040000fa
:0401b800e20300005e
:020000040000fa
:0401bc00e20300005a
:020000040000fa
:0401c000e203000056
:020000040000fa
:0401c400e203000052
:020000040000fa
:0401c800e20300004e
:020000040000fa
:0401cc00e20300004a
:020000040000fa
:0401d000e203000046
:020000040000fa
:0401d400e203000042
:020000040000fa
:0401d800e20300003e
:020000040000fa
:0401dc00e20300003a
:020000040000fa
:0401e000e203000036
:020000040000fa
:0401e400e203000032
:020000040000fa
:0401e800e20300002e
:020000040000fa
:0401ec00e20300002a
:020000040000fa
:0401f000e203000026
:020000040000fa
:0401f400e203000022
:020000040000fa
:0401f800e20300001e
:020000040000fa
:0401fc00e20300001a
:020000040000fa
:04020800e20300000d
:020000040000fa
:04020c00e203000009
:020000040000fa
:04021000e203000005
:020000040000fa
:04021400e203000001
:020000040000fa
:04021800e2030000fd
:020000040000fa
:04021c00e2030000f9
:020000040000fa
:04022000e2030000f5
:020000040000fa
:04022400e2030000f1
:020000040000fa
:04022800e2030000ed
:020000040000fa
:04022c00e2030000e9
:020000040000fa
:04023000e2030000e5
:020000040000fa
:04023400e2030000e1
:020000040000fa
:04023800e2030000dd
:020000040000fa
:04023c00e2030000d9
:020000040000fa
:04024000e2030000d5
:020000040000fa
:04024400e2030000d1
:020000040000fa
:04024800e2030000cd
:020000040000fa
:04024c00e2030000c9
:020000040000fa
:04025000e2030000c5
:020000040000fa
:04025400880300001b
:020000040000fa
:04025800400300005f
:020000040000fa
:04025c00e2030000b9
:020000040000fa
:04026000e2030000b5
:020000040000fa
:04026400e2030000b1
:020000040000fa
:04026800e2030000ad
:020000040000fa
:04026c00e2030000a9
:020000040000fa
:04027000e2030000a5
:020000040000fa
:04027400c6030000bd
:020000040000fa
:04027800e20300009d
:020000040000fa
:04027c00e203000099
:020000040000fa
:04028000e203000095
:020000040000fa
:04028400e203000091
:020000040000fa
:04028800e20300008d
:020000040000fa
:04028c00e203000089
:020000040000fa
:04029000e203000085
:020000040000fa
:04029400180300004b
:020000040000fa
:04029800e20300007d
:020000040000fa
:04029c00e203000079
:020000040000fa
:0402a000e203000075
:020000040000fa
:0402a400e203000071
:020000040000fa
:0402a800e20300006d
:020000040000fa
:0402ac00e203000069
:020000040000fa
:0402b000e203000065
:020000040000fa
:0402b400e203000061
:020000040000fa
:0402b800e20300005d
:020000040000fa
:0402bc00e203000059
:020000040000fa
:0402c000e203000055
:020000040000fa
:0402c400e203000051
:020000040000fa
:0402c800e20300004d
:020000040000fa
:0402cc00e203000049
:020000040000fa
:0402d000e203000045
:020000040000fa
:0402d400e203000041
:020000040000fa
:0402d800e20300003d
:020000040000fa
:0402dc00e203000039
:020000040000fa
:0402e000e203000035
:020000040000fa
:0402e400e203000031
:020000040000fa
:0402e800e20300002d
:020000040000fa
:0402ec00e203000029
:020000040000fa
:0402f000e203000025
:020000040000fa
:0402f400e203000021
:020000040000fa
:0402f800e20300001d
:020000040000fa
:0402fc00e203000019
:020000040000fa
:04030000e203000014
:020000040000fa
:04030400e203000010
:020000040000fa
:04030800e20300000c
:020000040000fa
:04030c00e203000008
:020000040000fa
:04031000e203000004
:020000040000fa
:04031400e203000000
:020000040000fa
:04031800e2030000fc
:020000040000fa
:04031c00e2030000f8
:020000040000fa
:04032000e2030000f4
:020000040000fa
:04032400e2030000f0
:020000040000fa
:04032800e2030000ec
:020000040000fa
:04032c00e2030000e8
:020000040000fa
:04033000e2030000e4
:020000040000fa
:04033400e2030000e0
:020000040000fa
:04033800e2030000dc
:020000040000fa
:04033c00e2030000d8
:020000040000fa
:04034000e2030000d4
:020000040000fa
:04034400e2030000d0
:020000040000fa
:04034800e2030000cc
:020000040000fa
:04034c00e2030000c8
:020000040000fa
:04035000e2030000c4
:020000040000fa
:04035400e2030000c0
:020000040000fa
:04035800e2030000bc
:020000040000fa
:04035c00e2030000b8
:020000040000fa
:04036000e2030000b4
:020000040000fa
:04036400e2030000b0
:020000040000fa
:04036800e2030000ac
:020000040000fa
:04036c00e2030000a8
:020000040000fa
:04037000e2030000a4
:020000040000fa
:04037400e2030000a0
:020000040000fa
:04037800e20300009c
:020000040000fa
:04037c00e203000098
:020000040000fa
:04038000e203000094
:020000040000fa
:04038400e203000090
:020000040000fa
:04038800e20300008c
:020000040000fa
:04038c00e203000088
:020000040000fa
:04039000e203000084
:020000040000fa
:04039400e203000080
:020000040000fa
:04039800e20300007c
:020000040000fa
:04039c00e203000078
:020000040000fa
:0403a000e203000074
:020000040000fa
:0403a400e203000070
:020000040000fa
:0403a800e20300006c
:020000040000fa
:0403ac00e203000068
:020000040000fa
:0403b000e203000064
:020000040000fa
:0403b400e203000060
:020000040000fa
:0403b800e20300005c
:020000040000fa
:0403bc00e203000058
:020000040000fa
:0403c000e203000054
:020000040000fa
:0403c400e203000050
:020000040000fa
:0403c800e20300004c
:020000040000fa
:0403cc00e203000048
:020000040000fa
:0403d000e203000044
:020000040000fa
:0403d400e203000040
:020000040000fa
:0403d800e20300003c
:020000040000fa
:0403dc00e203000038
:020000040000fa
:0403e000e203000034
:020000040000fa
:0403e400e203000030
:020000040000fa
:0403e800e20300002c
:020000040000fa
:0403ec00e203000028
:020000040000fa
:0403f000e203000024
:020000040000fa
:0403f400e203000020
:020000040000fa
:0403f800e20300001c
:020000040000fa
:0403fc00e203000018
:020000040000fa
:100400004f7721000e7f22000e01880000000000bf
:10041000000020000000e000020032000001200087
:100420002002880014000700e80007000000e00038
:1004300003003a00201826000100200002003700c7
:100440000000200001002000810f70000100320038
:1004500014000700000020000000e000020032004d
:1004600000000200000000006661020000000000c1
:100470000040da000000fe004440a9000004200013
:100480000000e000030032000020200090018800fe
:100490004440a800000006008a1f78008b1f7800e7
:1004a00000000600a1028800800478000000eb0034
:1004b0001f003700e284440054a0b4009905ba003c
:1004c000e284440054a0b4009906ba00e2844400d7
:1004d00054a0b4000006eb00476fde00fd07b20039
:1004e000ae018800636ce10003003a00eaff0700f8
:1004f0000000eb000e003700606ce10008003a00dd
:10050000004deb000a05e800020039003420ec0041
:100510000af0a0008b05e900f9ff3e000400370057
:100520006168e100010032000086eb000b0007006b
:1005300019c7ba001905ba000e04e00003003a001a
:100540000a00e000dbff3a0000000600fe07b200f0
:10055000ae0288008a047800f5ff37000cd0a300b3
:10056000e20f4d001c00390089027800354dba00b9
:100570000a05e800020039003420ec000af0a0006f
:100580008b05e9000f003200254dba000a05e8008e
:10059000020039003420ec000af0a0008b05e900cd
:1005a000080032000c00e0000600320015cdba0051
:1005b0000a05e800020039003420ec000af0a0002f
:1005c0008b05e9008984e80054a0b4000b00e0002a
:1005d000e2ff3a00000006009902ba00055d7800cb
:1005e0008b05e900f7ff3200c82ade00055d7800c0
:1005f0008b05e900f3ff32000c00e000f1ff320050
:1006000019ddba00eeff370056510400000000006b
:10061000705a040000000000ce5a040000000000e0
:10062000245a0400000000002e48040000000000ce
:10063000809fbe003200f8003400f8001000200057
:10064000a001880000202000900188000000fa002e
:100650008760a900004080001140800061004000d8
:10066000e080480000408800114088000080fa00c7
:100670003400f9003200f9004f00be0000400600cf
:100680003600f800809fbe00829fbe00849fbe009f
:10069000869fbe003200f8003400f80010002000f1
:1006a000a001880000202000900188000000fa00ce
:1006b0008580a9000800370011118000002020006b
:1006c000008060000000e00007003a009e2b070059
:1006d0000000fb0020118800304180000000e00095
:1006e000f5ff3a0001003700000000000080fa002a
:1006f0003400f9003200f9004f03be004f02be0083
:100700004f01be004f00be003600f9000040060059
:100710003600f800809fbe00829fbe00849fbe000e
:10072000869fbe003200f8003400f8001000200060
:10073000a001880000202000900188000200fa003b
:100740008560a9000400370030118000004f780058
:100750001e407800232b070010118000610060000c
:100760000000e000f8ff3a000080fa003400f900d1
:100770003200f9004f03be004f02be004f01be0021
:100780004f00be003600f900004006003200f800bd
:100790003400f800881f780018002000a8018800a5
:1007a00008202000980188004f0478000000fa001b
:1007b0008660a9000080fa003400f9003200f900d8
:1007c000004006000040da000000fe0000000500c6
:1007d0000001be003f0007000470a70003f0a10065
:1007e0006509b100160032000d0035006828e100ef
:1007f00006003500f0ff2f00f1ff27000300e000a6
:1008000013003b000100280000000500000040002c
:10081000818048008502e900fcff3a0008003700ab
:10082000f88f420002003c008000eb000000050051
:100830008100d1000080d3008502e800fcff3a006f
:100840000300e00002003b0060001000e0801800a0
:10085000000006000001be001e0007000470a70093
:1008600003f0a10003f8a30013003a006509b100ea
:1008700010003200090035006928e100020035004f
:1008800001002800000005000000400081804800b1
:100890008502e900fcff3a0000000600f88f4200e4
:1008a000050035008100d1000080d3008502e800fa
:1008b000fcff3a00000006008000eb00000005008d
:1008c0004f89de00820178007c0337006011b80098
:1008d0008a033700c70ade00f107b200f50fb20045
:1008e00008003200e1cf4200020032000170a00097
:1008f00024000500810f700001003200040805008b
:1009000044000500810f700002003a001400050049
:100910008502e9000000400081c04800fcff3b0068
:100920000170a000240005006022b800060220002b
:100930000000d0008180d2000482d2008582d200e3
:100940000000a0000202520083825a00030031001e
:100950000202420083824a000000a1000603e9006f
:10096000f3ff3a000000060007f827000783610044
:100970000638e10004003a00f70720008783610091
:100980008703710001003a0003f0a200889fbe00b7
:100990008a9fbe008c9fbe00470ade000480a10033
:1009a000c71ade000580a100070028000785600047
:1009b00087856100f70f20000720e1009e003200cc
:1009c0000728e1009c003200010678000400e000e6
:1009d000b4003200f7072000878060000170a0009b
:1009e0000500e000c0003200f707200087816100a9
:1009f0000370a000050652000f003a000b50e10002
:100a00000b0032000308e10002003a000200e1009e
:100a10007e0032000204500083845800040031003c
:100a20000001fd008101fd008402fd008a05fd003a
:100a30006044b800210037000520e10005003d00ba
:100a40000001fd008101fd008402fd008a05fd001a
:100a5000050652007a60e100050035000170a10032
:100a60004722dd00848070008a80700063003700b8
:100a70006044b800ef02660007ff2f00070666001b
:100a80000500e00006003400f08312008714dd004a
:100a90000511de00071bdd00060171008519de006f
:100aa0007060e100050035000904780082047800d8
:100ab000030178008001eb00700656000b50e10046
:100ac00003003a0002004000838048000400370021
:100ad00060041400e0841c00020058008380580069
:100ae0000188a300060032008100d1000080d300fd
:100af0008984d3000884d3000402e800270037006b
:100b00000178a30025003a000100e0000300320054
:100b10008186cf00698656000a0037008c002000cd
:100b20000000e00004003a00090078008804780022
:100b30000004eb00700252008086cf000d064600d4
:100b40000c06e9007060e1000600350080007800c6
:100b500009007800880478000004eb007006560055
:100b6000700252000c00e0000c0034008c08dd0024
:100b7000f00316000703de00868070000c00dd0025
:100b8000074bde00060070008c4cdd000743de00e2
:100b9000868474000c44dd000c0252006120e100e8
:100ba0002000350061016000070028008781640093
:100bb000f7ff270087836400070374000300e00049
:100bc0000600320082037300040032000000e800d7
:100bd000e08048000188a3000e003a00f70f2000d3
:100be0000720e1004a003d000170a1004722dd001e
:100bf000810072008a8070000000be004f06be00b7
:100c00004f05be004f04be00000006006000b800a3
:100c1000faff37008100d1000080d3000402e80011
:100c2000eeff37000401780089017400a10107007c
:100c30008a807000f1ff3700f70107000702780093
:100c40000001fd008101fd00f3010700870278002b
:100c5000850372000778a300040032000001fd0044
:100c60008101fd0006020700e4ff370085036200f2
:100c70000768a300080032000b50e10003003200b7
:100c8000f0ff2f00f1ff2700dcff37000001fd001f
:100c90008101fd00d9ff37000468a300d7ff3200af
:100ca000faff3700f8ff2700888360000b003a0046
:100cb0000000e00009003a008303640082837300af
:100cc000020032000200be00ccff37000b50e100f2
:100cd000ceff3a000200be00c8ff3700140020001b
:100ce000810064003eff3700f8ff27008883610021
:100cf00004003a000200e00002003a008c00780094
:100d0000beff3700150020008301640039ff370063
:100d100001f827000000200081007500b7ff3700b0
:100d2000889fbe008a9fbe008c9fbe001b002000d3
:100d30000202be000586680006002800060666005e
:100d40004709de00f20fb200820032000243e800e1
:100d500080003200c729de00f30fb2007d003200b0
:100d60000343e8007b003200f107b2000170a000ed
:100d7000f507b2000570a000c708dd004903de00da
:100d8000868070004700dd00c72add004923de00b1
:100d9000868272004722dd000305510004035000e3
:100da0008583580003003100000040008180480026
:100db0000a05e9008c1f78008a9fbe0004005000dd
:100dc000858058000402420085824a0000004000ed
:100dd000818048000005eb000004be006033b800cd
:100de0000406be000d48e100560031001100090064
:100df0004dccd8000c01b8000d02b8008481410030
:100e000060824a008283530003045c0084845c0097
:100e100060055d000a00e00025003a0080057800ca
:100e20000d40e1004900310088007800070078009b
:100e3000110009004d88d8000c01b8000d02b8005f
:100e40008481410060824a006003110083835b005b
:100e500004045c00e0845c000900e00021003a002a
:100e60004f01be000300e0002b003200e3016000f0
:100e7000070673008c81710001003200640070006d
:100e80004200de004e5edd000c007000c258de0045
:100e900001e0a00083010700cf017800818071008c
:100ea0004f06be004f05be004f04be000000060006
:100eb0008c8343000d044c00e0844c0060054d0021
:100ec0000000e9000a00e000d4ff32008c834300f8
:100ed0000d044c00e0844c0060054d000000e9006a
:100ee000ceff37000c0343008d834b0060044c00a1
:100ef000e0844c000000e9000900e000d8ff320067
:100f00000c0343008d834b0060044c00e0844c00d4
:100f10000000e900d2ff37004200de004e5edd0037
:100f20000c007000c258de0001e0a000cf01780084
:100f30000300e000daff320060001000e0801800db
:100f4000d7ff3700f0ff2f00aaff3700f0ff2f0078
:100f5000b9ff37000404be002f01070087067800a0
:100f60000004fd008104fd002b01070007836600db
:100f70000678a300030032000960a7000800be0045
:100f80002c0037000d78a300020032000800be00dc
:100f9000280037000778a30026003a0001f0a100de
:100fa00009f0a1000668a30003003200f1ff27004a
:100fb000f0ff2f00baff37000d68a30003003200d6
:100fc0000800be008c807000b5ff37000768a300e2
:100fd00007003a000648a30003003200f1ff270093
:100fe000f0ff2f00aeff37000d48a30003003200d2
:100ff0006000b8008c807000a9ff37000748a3008c
:101000000400320001f82700000020008c807000ee
:10101000a3ff3700760107000004fd008104fd00f6
:1010200002057800720107000802be008a017800fc
:1010300059ff37000160a0001202200072448800ae
:1010400097ff37000100e000120032000500e000c9
:1010500010003200889fbe008a9fbe008c9fbe0099
:101060000006eb0001f8a30003003200600010004e
:10107000e08018000cf0a00005f8a3000300320087
:1010800060021200e0821a000cf0a2008005eb0062
:1010900041ff37006000b8000200050003836800cc
:1010a0000700280007036300470ade000480a10050
:1010b000c71ade000580a100f70f20000720e1001d
:1010c000420032000728e10040003200889fbe0045
:1010d0008a9fbe008c1f7800f107b200f307b200b0
:1010e0000400e000640032000170a0000500e00090
:1010f000680032000370a00085054200eb07b100d4
:101100000204b8000302b8008484440060854a00e9
:10111000020ab800848444000a854a00030ab80021
:1011200004054500040033000804d0008984d2007f
:101130000a85d2008b05e9006158e1003d003500c9
:10114000021020000901610003082000898161006c
:10115000f70720008783640008867300c84cde0010
:10116000c853dd00878474004855de000300e000aa
:101170000600320082037600040032008904e80091
:1011800060054d000a88a3000c003a00f70f20000c
:101190000758e10044003d000a70a100c75ddd0072
:1011a0000a8575008a007300090078004f067800f0
:1011b0004f05be004f04be00000006000a05d10026
:1011c0008984d3008b05e800f0ff3700881f780082
:1011d0000604780090000700070278000001fd0077
:1011e0008101fd008c0007008702780085037200f2
:1011f0000778a300050032000001fd008101fd0019
:101200009f0007004f04780000000600850372006d
:101210000748a30003003200f0ff2f00f1ff270072
:10122000f8ff37000000200001f8270088807000d8
:10123000f4ff3700880178004848dd0080817100a4
:101240004848de00c850dd0001007000c850de00d4
:10125000060478000b0178001600070088807000f3
:10126000d2ff37000500e000050032001700200023
:101270003a0007009dff370081037000f9ff3a0034
:10128000860078004f0678004f05be004f04be0070
:101290000000050083037100f9ff320027002000e1
:1012a0002e00070094ff370001f8270086807000a9
:1012b000f4ff37000100e000260032006101110058
:1012c0007810e10023003c006022b8007010e100bb
:1012d0000400350080027800010078008000eb00f7
:1012e000700151000200e000090034007003110099
:1012f000062add00822ade008603dd008782720076
:101300000200de00860bdd00070070008208de00b0
:1013100084817100f4ff27000482620084817100df
:1013200004002800848262006102600005f0a600cb
:101330000000060004827100070032000000e8008f
:10134000e0804800000006000002be006000b80017
:10135000efff37006000b80000000600889fbe0065
:101360000004eb006138e10016003a000100e000e3
:1013700008003a00c800de004800dd0088002000b8
:101380000100e00003003a00c800de004800dd0074
:10139000680444008184cf00e984540006003400ce
:1013a0008908dd00f08314008703de008780700069
:1013b0000900dd0009044400610214004f04be006e
:1013c000000006000300e00008003a00c811de003b
:1013d0004811dd00880020000300e00003003a000f
:1013e000c811de004811dd00680444008384cf008a
:1013f000e9845400060034008919dd00f0831400ec
:101400008713de00878171000911dd0009044400a3
:10141000e1021400e9ff37002700200001f0a700d7
:1014200017002000470bde00f60fb2000400320068
:101430000643e8000a0032004702b300000006003d
:1014400001037800f607b2000603700002003a00bc
:101450000703b300000006008702b3000000060087
:1014600001037800f607b2000603700002003200a4
:101470000770a000000006000760a0000000060042
:101480000478a300040032000578a30003003200b2
:101490000168a30001003a000200be000160a00044
:1014a0000000060081017000270032008002eb007e
:1014b00001f8a3000300320060001000e080180073
:1014c00015002000f4072000020242002000340032
:1014d000f703200087036000060420000003630078
:1014e00002082000000161004700de00c909dd009c
:1014f00000807100c708de000600e000080032002e
:1015000087037100060032001000b0000180b000b7
:101510000188a30002003200c108de000402e800d6
:10152000f107b200f30f20000320e10003003d00ab
:101530004722dd00810072002900370001f82700f2
:101540000000eb00260037006000b8000000060035
:10155000680212007f20e100020034006000b80041
:101560001f0037006011b8007020e1000400350052
:1015700080017800010078008000eb0070025200ca
:101580000400e00009003400f00312000719dd0038
:101590008419de000703dd00868171000400de008f
:1015a000070bdd00060070008408de00f7ff27004f
:1015b0008383630087037100060028000303630030
:1015c000070032000700e00003003a0061016000fc
:1015d00002817300020032001000b0000180b000f0
:1015e0000500a6000000060001f0a00000000600b3
:1015f0004f0ade004709de00f107b200f20fb20029
:101600000b003200f207b1000170a000c708dd0036
:10161000c901de00838070004700dd000400a600e1
:101620000000060060001000e080180000000600c6
:10163000810f700001003a00000006008182cf0097
:101640000500e00010003e008082cf00ee824200e4
:101650007028e1000400390007003e008000780097
:101660000000eb000e003700708312008600de00e1
:101670000500dd000a003700708352008600dd009f
:101680000000eb0006003700e28252008508dd0012
:10169000708312000603de00868070000500dd0006
:1016a0007507b0000501ea000400a600000006006e
:1016b00060001000e080180000000600881f78001d
:1016c000030478000300e00007003d006000100004
:1016d000e080180060011900e081190002003b0061
:1016e00001f02d00030037000400070008f0a700f8
:1016f00001f0a0004f04780000000600889fbe00a3
:101700008a9fbe0000827000040271000482710092
:10171000260032000004be000200be006011b800c6
:101720006b092000950220000182cf000a003900d9
:101730000541b1000082cf00070039000541b1002a
:101740000982cf00040039000541b1000882cf00b2
:10175000010039000541b10005425200120032007b
:101760000a003b0082817100610164008100d100a8
:101770000080d3008984d3000884d3008b05e8005f
:101780000442e800f7ff3a0007003700080444006d
:1017900089844c0000004800818048008b05e900e6
:1017a0000442e900f9ff3a00030007004f05be00bc
:1017b0004f04be000000060081002000618055003b
:1017c0000b003d000b00200061fe2f000100e10036
:1017d0001d00340082817100610164008904d10020
:1017e0000884d3000000e800faff3a0071002000ee
:1017f0006100640003007000020060000900320014
:1018000061044400e0844c000988a5000500320012
:101810008b05e8006808e10002003a008904d10065
:101820000884d300f20f20000258e10005003d00bb
:10183000c75ddd00f907b2008980750008007800f7
:10184000000006000bf827008b0078000000050060
:101850000400fa00889fbe008a9fbe000004be00fc
:101860004709de0003002000f20fb200f207b100ca
:10187000f60f510030003c000200e0001c00350073
:10188000faff2f00fb0720000201e90003003300ec
:101890008b85d1000a85d300fbff37008b81640064
:1018a0000a016000e00f5100e08f59002200320071
:1018b0000200200003b8270034fc0700a0bf9f00ef
:1018c000b1bf9f00e00f5400e08f5c0002003d00bc
:1018d0000a0444008b844c000a85ea008b85ea00e8
:1018e0008b8064000a0064000004be001100370011
:1018f0000200200003b8270024fc0700a0bf9f00bf
:10190000b1bf9f00e00f5400e08f5c000200350083
:101910006044b800070037000800440089804c008c
:10192000e00f5000e08f5800020032000800200055
:1019300009f82b000800be004f05be004f04be0092
:101940000080fa00000006000000fa0068815700dd
:10195000cfb89700bb0507000080fa000000060022
:10196000030107005c01070036040700e7040700d5
:101970000f05070068040700b605070028060700e2
:10198000d30537000000fa0068815700cfb89700f0
:10199000ac0507000080fa0000000600f400070014
:1019a0004d01070027040700d804070000050700c1
:1019b000590437000000fa0068815700cfb897003b
:1019c000a00507000080fa000000060042010700a1
:1019d000a00537008000eb00dc00370080007800b5
:1019e0001000200002022000828f5000040032000c
:1019f000e9805000e48f5000010036000000eb0049
:101a000000000600889fbe008a1f7800000578004d
:101a10000a047800984478000805e8000900fb00f3
:101a2000eeff07000000e000f9ff3a00b0c2b3008b
:101a300080cf540005003200d0c2b3008000eb001c
:101a400080cf540005003a00020037008000eb0010
:101a500001003700110020000804e8000000eb003e
:101a6000030037006a02b900020052000003b00010
:101a70003801fb0003fd2f0082814100e98f5100f6
:101a8000f8ff36000100e00001003a000000ea0023
:101a90004f0578004f04be0000000600800078006b
:101aa0001000200002022000828f5000040032004b
:101ab000e9805000e48f5000010036000000eb0088
:101ac00000000600889fbe008a9fbe0000057800c7
:101ad0008a047800194478000905e8000800fb0032
:101ae000eeff07000000e000f9ff3a00b0c2b300cb
:101af000804f540004003200d0c2b300804f540025
:101b000006003a00020037000004eb000100370035
:101b1000180020008904e800010037000004eb00f1
:101b20006000b80006003700a2002000030020007b
:101b300034160700cfd5de000a0050008b80580015
:101b40003905fb000a03b100e90f5500f6ff360026
:101b50000800e00002003a0060001000e080180079
:101b60004f05be004f04be00000006008000780054
:101b70001000200002022000828f5000040032007a
:101b8000e9805000e48f5000010036000000eb00b7
:101b900000000600889fbe008a1f7800800478003d
:101ba000090578001a4478008a04e8000800fb0060
:101bb000eeff07000000e000f9ff3a00b0c2b300fa
:101bc000804f540004003200d0c2b300804f540054
:101bd00006003a00020037000004eb000100370065
:101be000180020000a05e800010037000004eb009f
:101bf0006000b8006011b80009003700a4002000a0
:101c0000050020006033b800271907004fcade0026
:101c10000900500084805800040159008481590053
:101c2000ba04fb000903b100e98f5400f3ff36004a
:101c30000800e00006003a006022b8006033b800f7
:101c40000000520081805a0002015b0083815b002a
:101c50004f0578004f04be000000060080017800a8
:101c600002003700b15978000201e9000200e000eb
:101c7000fcff3a00000006000000fa0068815700ef
:101c8000cfb89700360007000080fa000000060079
:101c90003c00fa00889fbe008a9fbe000004be0080
:101ca000020578000f0078004004b1001d00090013
:101cb0000018eb0088a79f00d8af9f000080eb00c2
:101cc000e0af9f006022b8006033b800c0fb2f0077
:101cd0000f004000d3100700120020008a00780097
:101ce000c0fb2f000f004000540f07006fb2970099
:101cf000ffb297000fbb97009fbb9700dfad970027
:101d00000fa597000900e000090032000a85550080
:101d1000cfd5de000402450085824d0006834d00cc
:101d200087834d000100320004044400880c7800d1
:101d30004f05be004f04be000080fa000000060000
:101d40000001eb00d2ff07008015370012002000d1
:101d5000cfff07007d15370022002000ccff3700a1
:101d60008201780001017800f1ff27009711370008
:101d7000ec874700889fbe008a9fbe008c9fbe00f4
:101d80008e1f780000067800010478001807900084
:101d90002805900098067800cdb79f00b805900000
:101da0003202be002203be000400be000601be00d7
:101db0004f18de006011b8008000eb00d0b79f0024
:101dc000e1b79f00f2b79f0083bf9f0080047800b7
:101dd0000900e000060032006000b8006011b800a1
:101de0000402500085825800060359008783590079
:101df0000e00e000020035000d10a100cdb79f00dd
:101e00000900e00005003a004fb097000028a30049
:101e100002003a000038a300020032008a00e90004
:101e2000010037008a007800f8815700a2002000e6
:101e300008007800620307000900e00003003a0090
:101e4000cfb097000128a300080032000000e9008d
:101e500000814500b1c2b3000900e000010032007a
:101e6000d1c2b30001497800050037000138a30052
:101e7000030032000000e90001c2b3008175780060
:101e8000480190000201e9000001510080804500f6
:101e90004fb297008a0178000c0078002b050700ec
:101ea0009c0090000188a30004003200980090007c
:101eb000810f500001003d00010078004f077800bd
:101ec0004f06be004f05be004f04be00cf00b1005c
:101ed00000000600000006004200fa00889fbe00d5
:101ee0008a9fbe008c9fbe0020079800110f9800ab
:101ef000034f980011007800400f98009100900067
:101f0000610f98009e099000a3019000330f980084
:101f10001e0a900044029000140798009e0a900048
:101f2000b5029000052798003204be002205be00cd
:101f30006022b8006033b8000800be000a01be008d
:101f4000941407000000e00003003d000bf0a20025
:101f5000d0c2b300040037004e0b90000628a30047
:101f600009003200b0c2b3008e239000804b78008d
:101f70003e0890000000e900700f9800110020005a
:101f8000510f9800100037004e0990000238a3004e
:101f90000900320000c2b3008e2190008049780011
:101fa0003e0a90000402e900740f9800150020001a
:101fb000550f9800040037003e0b9000760f9800f4
:101fc0008003eb00570f98000800be000a01be0016
:101fd000c0ff0700f4ff2f00f5ff2f00f6ff2f00d2
:101fe000f7ff27000402600085826000060361009d
:101ff000878361006000b8000200200003ff270013
:102000000020e10001a8e10002b0e10003b8e10016
:1020100011003a000e4890008000fb001104b1004e
:102020000e219000de09900003004100f98f50005e
:1020300002003e004174210001003700817421003c
:10204000b510070080742100ba1007005e0a9000e6
:1020500004014000150037000020e10001a8e10064
:1020600002b0e10003b8e100130036008e4a900090
:102070008500fb001104b1000e239000de0b9000e0
:1020800007004300f98f500002003e00c174210098
:1020900001003700017521009f1007000075210025
:1020a000a4100700de089000010140004e0a9000d5
:1020b000be099000500237006022b8006033b800bb
:1020c0000800be000a01be00321407000000e00054
:1020d0006a0032006022b8000600200007ff2300db
:1020e00044179800551798006617980077179800be
:1020f0008006eb000800be000a01be00001f980029
:10210000111f9800221f9800331f98000e26900080
:10211000070037008d06e8000802be000a03be0073
:10212000441798005517980066179800771798007d
:102130006022b80006002000470224004e109000e4
:10214000de1090006e119000fe119000b315070094
:102150000004be000205be000002be000203be0075
:102160000e1890009e1890002e199000be19900035
:10217000081407000000e000e6ff3d000c2798006f
:102180000006eb004e149000de1490006e159000d7
:10219000fe1590002500370040ed2f00808f56007f
:1021a00019003d000c00e00016003a006022b80063
:1021b00006002000073524000e1890009e1890009d
:1021c0002e199000be199000941507000002be0061
:1021d0000203be00041f9800151f9800261f9800d8
:1021e000371f98006022b800060020000735240041
:1021f0000800be000a01be00881507000004be00ea
:102200000205be001c0020006022b800060020006d
:10221000470224000800be000a01be00d0140700d7
:102220000004be000205be008d06e9000802be00e3
:102230000a03be000e1890009e1890002e19900000
:10224000be199000d31307000000e000d2ff350054
:102250000800be000a01be00401798005117980000
:1022600062179800731798000e1c90009e1c900037
:102270002e1d9000be1d9000080037006022b8009f
:102280000600200007ff2300441798005517980008
:1022900066179800771798008006eb008e4a90002a
:1022a0000500fb003b100700104f98006e0b9000dc
:1022b000600020000600e000010035006e0890007c
:1022c00071c6b3009e4b900081cf53000a003a00c4
:1022d000ee0890000100e000cf013200cf0137008e
:1022e0008d0f5000d3013c00001f980052c6b30070
:1022f000425f98001e0037009e499000435f98009f
:102300000200370064c6b300445f98000000e80094
:10231000001f980060c6b300ce5a900080cf5200d4
:1023200013003a000d00e00008003d006000b80016
:102330000200200003ff2300401798005117980067
:1023400062179800731798008006eb0061c6b3000f
:10235000415f980070c6b3001e499000804f510045
:10236000030032008e1990008d814100031f9800f8
:102370004e129000de1290006e139000fe1390003b
:10238000441f9800551f9800661f9800771f9800fb
:102390000800be000a01be0000179800111798003f
:1023a00022179800331798000006eb000802be00c1
:1023b0000a03be0054079800650798007607980046
:1023c000070f9800310037004e1a9000de1a900077
:1023d0006e1b9000fe1b90000e1090009e1090004f
:1023e0002e119000be1190005d1407008e1807009a
:1023f0000004be000205be00a3130700800278009f
:10240000250f98004e1a9000de1a90006e1b900067
:10241000fe1b90000800be000a01be00ff1407006a
:102420000e1290009e1290002e139000be1390008a
:10243000fa1307000002be000203be0007f0a2006c
:10244000041798001517980026179800371798005a
:102450006022b80006002000470224004e189000b9
:10246000de1890006e199000fe1990003c140700d1
:102470000002be000203be00441f9800551f9800d2
:10248000661f9800771f98000c06e8008e1a9000cf
:10249000850f5600ccff35005e049000ee049000de
:1024a0007e0590008e0d90006022b800060020008e
:1024b000470124004e189000de1890006e1990001d
:1024c000fe199000d51407000002be000203be00f2
:1024d000441f9800551f9800661f9800771f9800aa
:1024e0000e1090009e1090002e119000be119000d2
:1024f000281307000000e0000f0035004e1a90007e
:10250000de1a90006e1b9000fe1b90000e109000d3
:102510009e1090002e119000be1190001d13070018
:102520000000e00011003a00ae0a90000508a30088
:10253000080032000d0037006000b8006011b800dc
:10254000401f9800511f9800621f9800731f980049
:10255000060037006022b8006033b800441f9800be
:10256000551f9800661f9800771f98004e1a90001c
:10257000de1a90006e1b9000fe1b90000800be004b
:102580000a01be00ab1307000002be000203be003a
:102590000417980015179800261798003717980009
:1025a0006022b80006002000470224004e10900070
:1025b000de1090006e119000fe119000971407003d
:1025c0000004be000205be000002be000203be0001
:1025d0000e1090009e1090002e119000be119000e1
:1025e000f11207000000e000090035008d06e80048
:1025f00060c6b300ce5a900080cf520008003a0067
:102600000e1b90000603e800061f9800110037001b
:102610004e149000de1490006e159000fe15900090
:1026200050c6b3004e599000804f510009003a0047
:102630000802be000a03be00441f9800551f980000
:10264000661f9800771f98008002eb0045179800de
:10265000070037000800be000a01be00401f9800b6
:10266000511f9800621f9800731f98004d17980023
:102670005e0e90000001eb00220f980032079800d8
:10268000520798000d0f78006a0037004e1a90002c
:10269000de1a90006e1b9000fe1b90000e10900042
:1026a0009e1090002e119000be119000ac130700f8
:1026b000dd1707000004be000205be00f21207008d
:1026c000e90f50000100340090002000ce09900076
:1026d0000348a3000c003a000000e0000a003a00a2
:1026e00071c6b3001e4a9000814f520006003a00a6
:1026f000ce1290000500e00003003d002e0b90007c
:102700008606e80023003700be0390000700e000c3
:102710000c003a00ce1090000100e00009003d00de
:10272000e1c2b3000e21900001717e000c06e800aa
:10273000fe0990008301e900730f98001400200047
:10274000340798008e2290000c814200ae0e90005b
:10275000850178000300370001c3b30001597800f8
:102760008d06e9000d00e000fbff3a00032798000a
:102770002e0b9000060646000043b00080717e00dc
:102780000c06e8000680ea00fe0b90008083430000
:10279000770f98004e1a9000de1a90006e1b900082
:1027a000fe1b90000800be000a01be001b140700bb
:1027b0000e1290009e1290002e139000be139000f7
:1027c000161307000002be000203be0007f0a200bd
:1027d00004179800151798002617980037179800c7
:1027e0006022b80006002000470224004e18900026
:1027f000de1890006e199000fe1990005813070023
:102800000002be000203be00441f9800551f98003e
:10281000661f9800771f9800ce1290008502e9008d
:10282000451798005e0390000603e80056079800dd
:102830002d0f9800de0390000e189000808f53003b
:1028400005003d009e08900041009000650050008a
:10285000800f56008dff39009e0678003e019000e3
:102860000200e00007003a00ce0990000348a300f0
:1028700004003200e0c2b3000e22900000727e001d
:102880000c06e8008e2290000c8042000048eb000d
:1028900051c6b3004e5b9000814f530038003a00a0
:1028a0009e0390008700e9000041eb0082f278006f
:1028b0008001eb000d00e00002003d008d06ea0003
:1028c000130020002200200001037800fe0a90007f
:1028d0008e239000000478000a003700010378007e
:1028e000a4002000110009008406d800010278002d
:1028f000800678000443b00084737b000201e90085
:102900008502e9008600e9000d00e000f3ff3a00cf
:102910000200e000f1ff3c00750f980007279800c7
:102920000800780001824300b2c2b3000300e00057
:1029300001003200d2c2b300024a78000101e9006e
:102940008e219000828041008e4a90000502fb009b
:102950001404b10053c6b300f90f520001003e0049
:1029600053c4b300834878007e0b90000683e900cf
:10297000760f9800820f560001003d00660e07009a
:10298000ce0b900063806300e20f500015003a0008
:102990007e0890000000e000120034000e2090003d
:1029a000640e07008e219000040037007e0990001d
:1029b00082804100e37078000000e900de0a9000a8
:1029c000850f5000f9ff3d00032798000580410066
:1029d0007e099000010320002e0d07000003eb008c
:1029e000360f98000e209000520e07004e0a9000fd
:1029f000be099000000178008e2090002e0090000b
:102a0000520207004f06be004f05be004f04be0035
:102a10000080fa000000060010002000e48f46004d
:102a20002ffe3d00001f980057c6b300475f980077
:102a30004ffe37000d00e00032fe3500001f980009
:102a400042fe37000200fa00889fbe008a9fbe0047
:102a500080057800010478000200780018019000d9
:102a60002805900098007800b1bf9f00b80490003e
:102a70000200e000020035000110a100b1bf9f007c
:102a8000ea815700820020008a0078003002be00f0
:102a90002003be0008007800490007003fb99700f6
:102aa000f0006100030032000000e90001c3b30040
:102ab000817478003fb99700e8006100030032009c
:102ac0000000e90001c2b300817478004801900061
:102ad0000201e90000015100808044003fba9700e4
:102ae0008a0178000b007800180207009b00900014
:102af0000188a3000400320098009000810f50006c
:102b000001003d00010078004f05be004f04be00eb
:102b10000080fa0000000600ea874700889fbe0098
:102b20008a9fbe008e1f78000004780003007800a2
:102b30007287570084e2260055c72600049fbe0016
:102b4000c3962200030f78006c875700004feb00fc
:102b500011059000a1049000910578000200e000aa
:102b60000200320002077800010037007287570028
:102b70000000e00002003a000e007800ed0d0700b2
:102b80000a00e000030035008a0f50000100360003
:102b90000a0078000b0278008901780000017800b3
:102ba0008e00780008007800e80107004f077800e1
:102bb0004f05be004f04be00af00b100000006008c
:102bc000f4874700889fbe008a9fbe008c9fbe008e
:102bd0008e1f78000605be000404be0081bf9f0062
:102be00082b79f00f3b79f00b0009000e1b79f004d
:102bf0001301780092b79f0090069000400090006b
:102c00000000e900000678000d00e00001003d0032
:102c10001d0020008040eb00efb19700817178002b
:102c20001e0020001f0037000c06e9000fb09700bf
:102c3000cf80de006109b900a0b79f00b1b79f0047
:102c4000c2b79f00d3b79f000203be000002be00c0
:102c50000800be000a01be00b1140700000778009a
:102c60000e4078000043b000efb0970080707e0007
:102c70008d06e9000fb997000201e90082bf9f00ad
:102c80002fb29700bfb297004fb39700dfb3970002
:102c90000800be000a01be009a1407000205be002b
:102ca0000004be000c00e0000d003400e00f5400f2
:102cb000e08f5c00e00f5d00e08f5d00daff3a001e
:102cc0000d00e000d8ff3c008fb997000300e00042
:102cd000030034001fb097000018a300d2ff3a0091
:102ce0000e00e00002003a00ffb097001140a10082
:102cf0000c0078004f0778004f06be004f05be005d
:102d00004f04be004f01b100000006000200fa00af
:102d1000889fbe008a9fbe000005780001047800ed
:102d20000200780018019000a80490009800780034
:102d3000b1bf9f00b80590000200e000020035001e
:102d40000110a100b1bf9f00ea815700a20020003e
:102d5000890078003002be002003be000800780021
:102d600097ff0700480190000201e90000015100af
:102d7000808045003fba9700890178000a007800fa
:102d8000720107009a0090000188a300040032003d
:102d900098009000810f500001003d000100780074
:102da0004f05be004f04be000080fa000000060080
:102db000fa874700889fbe008a9fbe008c9fbe0096
:102dc0008e1f780080047800010478008205780066
:102dd000180190002805900018077800b8009000ae
:102de0000200e000020035000e10a10001003700d3
:102df0001200200070006700e0b79f000900320059
:102e00003b02be002b03be00e00f5200e08f5a00d1
:102e1000e00f5b00e08f5b00020032008a86e90071
:102e2000010037008a067800e8026700f5b79f00c6
:102e3000010032008d06e9003b02be002b03be00fc
:102e4000e4af9f00f5af9f0086b79f0097b79f0044
:102e5000480690000c06e9000040eb0080707e0000
:102e6000efb297007fb29700890378008104780061
:102e7000d8af9f00020478008bbf9f008a057800be
:102e8000034578002a0037000c06e9006fab970075
:102e90006f006300e90f500002003c000003b00027
:102ea000010037007005b0000a03fb001604b100f2
:102eb000f90f53000c003e00000378000650a000fc
:102ec0001606b100f90f530007003e00b4b79f008b
:102ed000a5b79f00c7b79f00350d0700cfb3970078
:102ee000afb297003fb2970080747e000804e900fb
:102ef0008d06e9006fa89700ffa897000fb1970013
:102f00009fb19700460020008301d1000281d300c9
:102f10008180d3000080d3000603e900faff3a0065
:102f2000e0af9f00f1af9f0082b79f0093b79f0073
:102f3000e10f56000f0034006fa89700ffa897001c
:102f40000fb197009fb19700e00f5000e08f58003d
:102f5000e00f5900e08f5900cbff3a000800e00075
:102f6000c9ff3c000d00e000020034000e18a30071
:102f7000c5ff3a0089007800f4b79f008704780005
:102f80005fac97008a4178000b0578008fbd9700f1
:102f90000500e000100032003b02be002b03be0023
:102fa000e4af9f00f5af9f0086b79f0097b79f00e3
:102fb000e00f5200e08f5a00e00f5b00e08f5b00f3
:102fc000050032000c06e90083707e000c06e90063
:102fd00000c3b30080707e00ffb297000500e000e0
:102fe000030032000c06e90000c2b30080707e00ce
:102ff000480190000201e9000c0151008c80400062
:103000000e0278008a01780009007800cf000700de
:10301000990090000188a3000400320098009000fd
:10302000810f500001003d00010078004f0778003b
:103030004f06be004f05be004f04be00af01b100f9
:10304000000006008201780001017800f1ff2700ee
:10305000060d3700881f7800000478000008200063
:10306000808f50001700350010082000808f50001e
:103070000b00340030082000808f500011003a000f
:103080009200780068805000000978003002be008d
:103090002003be00049cbe000694be00070037005b
:1030a0009202780064805200000978001000be008f
:1030b00056100700009cbe000294be0010002000c5
:1030c000010037000000eb004f047800000006000c
:1030d00084082000848f50001d0032000d003c0049
:1030e00014082000848f50002700320002003c00aa
:1030f000040820000400370024082000848f5000ba
:103100003400320044082000848f500043003a000d
:1031100036003700040a2000848f50002700320058
:1031200004003c0004092000848f50003b003a005a
:1031300028003700020c2000828f50002f00320040
:10314000020f2000828f500034003a002b0037001d
:103150009380e9000200e000050032008109780058
:103160001102fb00cfa2de00612bb900280037005e
:1031700081097800114278000482fb008002eb0094
:103180006033b8002200370013027800e4005200d8
:103190000200e00005003200810978001102be0043
:1031a0004fabde00860378001900370081097800f4
:1031b0001102be006033b800150037009380e900ab
:1031c0008109780011027800cfa2de00612bb900de
:1031d0000f00370093027800e880520081097800e0
:1031e0003102be002103be00090037009380e900d0
:1031f0000200e00002003200f1ff37009380e90096
:1032000081097800110278008002eb006033b80079
:103210000498be000690be001000050000000500e6
:1032200044082000848f50002500320008003c0034
:1032300014082000848f500014003200240820005d
:10324000848f500024003200040820000c00370056
:1032500004092000848f50001f00320004003c004d
:1032600084082000848f500024003a000e003700ac
:10327000040a2000848f500011003200040c20004a
:10328000848f50001d003a000d0037009380e90044
:10329000810978009100780001087800cf91de0064
:1032a0008288be00140037009380e900810978000d
:1032b0009100780001087800824878000e003700fd
:1032c0009380e90081097800910078000108780076
:1032d00082087800080037009380e90081097800af
:1032e00091007800010878006112b900612bb900e3
:1032f0008498be008690be00100005000000050006
:10330000889fbe0000047800480090008204780086
:10331000808f540001003600800478000901780095
:10332000580090004dfa0700580090000900400036
:1033300050049800c8009000898450004904980007
:103340000048eb004f04be0000000600f287470073
:10335000889fbe008a9fbe008c9fbe008e1f780093
:103360008004780001057800020478008305780065
:103370006107620002003a008b0f54000800390018
:10338000080178008a00780009007800dcff070057
:103390008b0f540002003900880578001e003700aa
:1033a000088655000c017800f00f56000100360029
:1033b00002012000010220007e805700b50a0700ac
:1033c0008c0678000500370002012000fe805700bf
:1033d00009007800caff0700f0865600ef8f5600fc
:1033e000f9ff3e004461de0000ff2f000091b900ac
:1033f00002014600fe80570009007800c0ff070068
:103400000e00e00004003a00080178008a0078000d
:1034100009007800baff07000b0078004f0778001a
:103420004f06be004f05be004f04be002f01b10085
:103430000000060000000500000005000000050077
:10344000000178000040eb008080fb00818040009c
:10345000e372210063c278000404e00003003a0034
:10346000f072210060c07800000006009201780030
:10347000934f520004003a00f072210060c07800bf
:103480000309e800010037000040e800ea4f50005f
:10349000edff360000000600f6874700889fbe005b
:1034a0008a9fbe008c9fbe008e1f780000057800aa
:1034b0000104780083057800040678000000eb0022
:1034c000c0b79f008080eb00d1b79f00e0b79f009e
:1034d000f2b79f000008200080bf9f00980078008e
:1034e000010078008004eb00010037008904e80047
:1034f000304178000204e0000300320053c2b30000
:10350000834f5100f9ff3a000900e0000400320047
:10351000090178000a00780079ff0700188c440040
:103520001807780050c2b3009e4f10003f013a00c8
:103530000e07e8000e0c780010003700cfb097009f
:103540000100a0000b003700cfb097000110a000d1
:1035500008003700cfb097000120a0000500370019
:10356000cfb097000130a00002003700cfb0970025
:103570000140a000c1b79f00000ce80018007800cf
:1035800090407800b2c2b30082cf5000f1ff320009
:1035900007003c0002c2b30082cf5000f0ff3200af
:1035a00032c2b30082cf500007003a00efff37006d
:1035b000d2c2b30082cf5000e0ff320002c3b3009a
:1035c00082cf5000e0ff3200a2c2b30082cf500091
:1035d0000d003a00000ce8001c80e900000e7800a5
:1035e00010007800e0b79f000000e0000f003d00f1
:1035f000cfb097000100a200c1b79f000000ea0011
:10360000e0b79f0009003700fef80700e0b79f0011
:1036100001003700000ce800180078009000fb0063
:103620000103b100e98f5000faff36004fb0970058
:103630000008a300020032000010a100c0b79f00e4
:1036400018007800e1c2b30090cf100016003a00d5
:103650008000eb00d1b79f000000e800000c78006c
:10366000a1c2b30090cf100006003a00000ce800a1
:103670001c80e900000e780010007800d0b79f0091
:1036800009003700dff80700d0b79f0001003700be
:10369000000ce800180078009000fb000103b10066
:1036a000e98f5000faff36000800780064ff070039
:1036b00080467800180078001000fb00350b0700ea
:1036c00091062000810f50003800320012003c00ab
:1036d00041062000810f5000340032000a003c00f7
:1036e00011062000810f500020003200310620001a
:1036f000810f5000a000320051022000810f5000c5
:10370000bc003a00b400370071062000810f500061
:10371000b8003c008800370001072000810f5000ee
:103720005c00320007003c00e1062000810f5000e1
:103730007a003200f1062000810f5000ad003a00ff
:103740003900370051072000810f50002700320058
:1037500081072000810f5000420032003107200015
:10376000810f5000a3003a008f0037008d80fb00ce
:103770000c01780000fe2f000f00400035fe07000e
:103780000000e000a800320018007800000ce800fb
:103790009041780002fe2f000f014100f880570091
:1037a0000a007800cd0b07000e0037008d80fb006b
:1037b0008c0178001200200000fe2f000f00400056
:1037c00043fe07000000e00097003200180ce800fc
:1037d00002fe2f000f014100f88057000a00780018
:1037e00063f9070080844400900037008d80fb005f
:1037f0008c0178000001eb0000fe2f000f0040005c
:1038000033fe07000000e00087003200180ce800db
:1038100002fe2f000f014100f88057000a007800d7
:103820003afd0700efff37008d80fb008c01780028
:103830000001eb0000fe2f000f00400024fe0700f7
:103840000000e00078003200180ce80002fe2f00b3
:103850000f014100f88057000a00780079fc07004a
:10386000e0ff37008d80fb008c0178000001eb0049
:1038700000fe2f000f00400015fe07000000e000d2
:103880006900320018007800000ce80090417800d0
:103890001c0037008c0178000001eb00010f2000b4
:1038a00000fe2f000f00400009fe07000000e000ae
:1038b0005d003200180ce8000fb097009fb0970031
:1038c0002fb19700bfb19700e00f5000e08f580074
:1038d000e00f5900e08f590009003a00cfb597007a
:1038e0006fb4970060722100920a07000b02780003
:1038f00088017800000178006172210047003700dc
:1039000083c7b30002fe2f000f014100f88057006b
:103910000a00780026fd0700b2ff37000b81440043
:103920008d80fb008c01780000fe2f000f0040000e
:103930003bfe07003c0037008d80fb000c01780047
:1039400000fe2f000f004000c2fd07000000e00055
:103950003500320018007800000ce8009041780033
:1039600002fe2f000f014100f88057000a00780086
:1039700059f907009bff370000c8b30080cf5600fd
:1039800029003a00180ce8001c80e900000e7800bd
:1039900010407800e0df9f0013002000e2fd2f00c0
:1039a0000f0141000800370000c8b30080cf560067
:1039b0001d003a00180ce8001c80e900000e780099
:1039c0008001eb0010017800f88057000a007800b1
:1039d00051fc070083ff370000c8b30080cf5600ba
:1039e00011003a00180ce8004fb29700efb19700b1
:1039f000080037000e0c78000000eb00c0b79f00f5
:103a0000e0b79f000080eb00d0b79f000002eb0002
:103a10008401780012002000c17221000a007800a1
:103a20004afe07006fff3700180ce8000900780015
:103a30004f0778004f06be004f05be004f04be0082
:103a40006f01b100000006008200fa00889fbe00ee
:103a50008a1f78000005780082047800c13f9f002b
:103a60000004eb001000370009027800880178009c
:103a7000a2f72f000f01410081f72f008f80400037
:103a80000a00780084fe070008004000880f5000fc
:103a900004003d00b004200080bb88000084eb00df
:103aa00004003700000478004f3897001004e0004d
:103ab000edff3a00080078004f0578004f04be0083
:103ac0000080fa000000060080007800100020004e
:103ad00002022000828f500004003200e980500072
:103ae000e48f5000010036000000eb0000000600eb
:103af0000800fa00889fbe008a9fbe00000478007c
:103b00008105780078089000b8109000810f50006f
:103b100003003100b084fb00700c980003003700f4
:103b2000080078006409070080047800b0022000d3
:103b3000808f5400040032000005eb00d00220000a
:103b4000808f54001b003a00d982b20009f0a70010
:103b50008904ea008904e9004f4dde0078089000ee
:103b6000b8109000810f500003003100b084fb00ba
:103b7000700c980003003700080078004e09070019
:103b80008004780000fd2f0009004000e90f50007c
:103b9000080036000b00e0000600320038109000ec
:103ba0000000e00003003200780890000000e90007
:103bb000700c980000fd2f00090040008005eb000c
:103bc000e90f500013003600381090000000e000ac
:103bd00072003200780890000000e900700c980034
:103be0006e0037006a59b9008205400078089000dd
:103bf000b8109000810f500003003100b084fb002a
:103c0000700c980003003700080078002a090700ac
:103c10008004780000fd2f0009004000e90f5000eb
:103c200003003e00b1cc2000818f5500edff340031
:103c3000615ab900612bb90084bf9f0095bf9f00f6
:103c4000a6bf9f00b7bf9f001f003700a400200041
:103c5000050020006033b8000fb897009fb89700a8
:103c60002fb99700bfb997000f110700cfcdde0025
:103c70000082440081824d0002834d0083834d0009
:103c80000403b1000580b1000680b1000780b100d7
:103c900084bf9f0095bf9f00a6bf9f00b7bf9f0036
:103ca00078089000b8109000810f50000300310098
:103cb000b084fb00700c9800030037000800780007
:103cc000fd0807008004780000fd2f000900400077
:103cd000e90f500017003e00d07a240011ae2700f3
:103ce00042e12a00731420000fba97009fba970090
:103cf0002fbb9700bfbb97000020e10001a8e100a7
:103d000002b0e10003b8e100d0ff34000900370041
:103d100078089000810f500003003100b084fb0050
:103d2000700c98000300370008007800e2080700d4
:103d3000800478000903b100b8109000e98f5400a6
:103d4000f3ff36000100e000030032007808900025
:103d50000000e900700c98000a00e0001600320034
:103d60006000b8006011b8000fba97009fba9700c2
:103d70002fbb9700bfbb97000402500085825800fc
:103d8000060359008783590084bf9f0095bf9f0099
:103d9000a6bf9f00b7bf9f00070037006000b800b4
:103da000020020000300280080bf9f0091bf9f00f9
:103db000a2bf9f00b3bf9f000fb897009fb89700a6
:103dc0002fb99700bfb997004f05be004f04be0042
:103dd0000080fa00000006000f04b000889fbe00bb
:103de0008a9fbe008c9fbe008e1f78000006780060
:103df000b1a79f00c29f9f00a3a79f00b49f9f00f1
:103e0000fc0890003c109000808f500004003100ae
:103e10003180fb00710e98000007eb000d003700a9
:103e20000c007800a4080700fbff3700fc08900096
:103e30003c109000808f5000030031003180fb0067
:103e4000710e9800020037000c0078009a080700f5
:103e50001e00200001032000810f5000f3ff3200fc
:103e60006022b8006033b80094af9f00a5af9f00f8
:103e7000b6af9f00c7af9f008002eb0095a79f00e1
:103e8000e1022000810f500023003a00fc0890005e
:103e90003c109000808f5000050031003180fb0005
:103ea000710e98006044b8006055b80011003700ea
:103eb0000c00780080080700faff3700fc0890002b
:103ec0003c109000808f5000030031003180fb00d7
:103ed000710e9800020037000c0078007608070089
:103ee00061045400e0845c0060055d00e0855d00d5
:103ef0001e00200001032000810f5000efff320060
:103f000098af9f00a9af9f00baaf9f00cbaf9f00b3
:103f10001500200095a79f006022b8006033b8000c
:103f2000d4af9f00e5af9f00f6af9f0087b79f001b
:103f30008002eb00a59f9f006022b80006002000d1
:103f400007ff2300d49f9f00e59f9f00f69f9f00df
:103f500087a79f006044b8006055b8006033b80080
:103f6000f6a79f0087af9f0084003700e102200082
:103f7000810f50000e003a009fa397000700e00059
:103f80008b003a005fa89700efa897007fa99700e1
:103f90008fb1970090af9f00a1af9f00b2af9f007d
:103fa000c3af9f001100200091a79f006a00370057
:103fb00091032000810f5000030034000050a00046
:103fc0009dfa2f008086460070002000010020002e
:103fd0006011b8005faa9700efaa97007fab970027
:103fe0008fb397000020e10001a8e10002b0e100da
:103ff00003b8e1000c003c007fa397008fab970053
:104000004438dd00cc30de00810070004430dd003b
:104010004feade000081460081014a00f2a79f00be
:1040200083af9f003f003700d00020000100200038
:104030006011b8005faa9700efaa97007fab9700c6
:104040008fb397000020e10001a8e10002b0e10079
:1040500003b8e1001d003c006022b800060020000b
:1040600007fb23005f989700ef9897007f999700d0
:104070008fa19700e90d07000002be000203be00f9
:10408000d49f9f00e59f9f00f69f9f0087a79f00fa
:104090006168b900a80c07005f9a9700ef9a970033
:1040a0007f9b97008fa39700dc0d07000002be00e6
:1040b0000203be000800be000a01be00dd0c0700be
:1040c0000004be000205be00160037000d00e0002f
:1040d00014003200af9a97000500e00011003a008a
:1040e0006022b8000600200007fe23005f989700ba
:1040f000ef9897007f9997008fa19700c70d070051
:104100000002be000203be000800be000a01be009d
:10411000c80c07000004be000205be001600200007
:10412000a69f9f005fa89700efa897007fa9970020
:104130008fb1970061004000e080480060014900b5
:10414000e0814900d0af9f00e1af9f00f2af9f0038
:1041500083b79f001e002000fc0890003c109000d8
:10416000808f5000030031003180fb00710e9800f9
:10417000020037000c007800cf0707000dfd2f006c
:1041800080864600e98f560078ff36008000780070
:104190000150a0001106b100e58f500073ff3600fa
:1041a000e1022000810f500073ff32000100370050
:1041b000e00220000e00e0001e003a003c109000db
:1041c0000000e00003003200fc0890008100e900dc
:1041d000710e9800bf9897000100e0000e003200b9
:1041e0000000e00003003200fc0890008100e900bc
:1041f000710e98001fa197000200e0000a00320033
:104200000000e000080032007c0890000000e90097
:10421000700e9800040037006022b8006033b800c8
:104220000c0078007f070700afa197006118b90064
:10423000510037001fa297000400e00016003a006a
:104240005faa9700efaa97007fab97008fb3970004
:1042500094af9f00a5af9f00b6af9f00c7af9f0070
:10426000110037007fa197008fa997004418dd0047
:10427000cc10de00810070004410dd00f0a79f002c
:1042800081af9f0061024200e0824a0060034b0060
:10429000e0834b00050037005faa9700efaa970064
:1042a0007fab97008fb397008006780070002000e6
:1042b000010020006011b8000020e10001a8e10029
:1042c00002b0e10003b8e100e6ff34000d00780021
:1042d0000050a00001072000810f500015003a0097
:1042e000bf9897000c00780001fe07006022b8001c
:1042f00006002000070028000400e1000588e10016
:104300000690e1000798e10014003a00bf99970079
:104310000300e00007003a006022b8006033b800f4
:104320000c0078003f0707006000b8006011b8007b
:104330003c0137003c1290006000b8006011b800ea
:104340000400e000050032007c0890000000e90055
:10435000700e98006000b8006011b8007fa297004e
:104360008faa9700e00f5200e08f5a0007003a0032
:10437000afa297006128b90051f107006011b800a1
:1043800046f30700a10b0700260137001faa97007c
:10439000afaa97003fab9700cfab970068025200df
:1043a000e0825a0060035b00e0835b002c00200089
:1043b0000402d0008582d2000683d2008783d20017
:1043c0000c06e900faff3a0004024000858248002a
:1043d0000603490087834900d4af9f00e5af9f00e3
:1043e000f6af9f0087b79f00cf9a97000500ea00bd
:1043f000cf80de006109b9005faa9700efaa97009d
:104400007fab97008fb397000020e10001a8e10087
:1044100002b0e10003b8e1000f00340020022000e8
:1044200080bb8800afa297006128b900c20b0700cb
:10443000f4ff2f00f5ff2f00f6ff2f00f7fe2700f7
:10444000f60c0700f4ff2f00f5ff2f00f6ff2f00fa
:10445000f7fe27001a0037004f9b970067f92f00df
:1044600007004300cf80de006109b9005faa970012
:10447000efaa97007fab97008fb397000020e10071
:1044800001a8e10002b0e10003b8e10039003d00fd
:104490002002200080bb8800afa297006128b900ed
:1044a000a50b07006022b8000600200007012000cd
:1044b000da0c07006022b800060020000701200087
:1044c000d60c0700d70037006022b8000600200095
:1044d00007fe23000800be000a01be00320b0700e1
:1044e0000c0646008d864e000000e0000d003500f1
:1044f00061064600e0864e006022b80006002000fb
:1045000007ff23000800be000a01be00c30b07001e
:104510000002be000203be000800be000a01be0089
:10452000040037000802be000a03be000800be00f7
:104530000a01be00bf0b07000004be000205be005a
:104540005fa89700efa897007fa997008fb1970009
:1045500061005000e080580060015900e08159007e
:10456000d0af9f00e1af9f00f2af9f0083b79f00e5
:10457000020037007fa697008fae9700e00f56002d
:10458000e08f5e00d0ff3d00fca79f008daf9f0035
:104590003fa29700cfa2de00612bb90094af9f002d
:1045a000a5af9f00b6af9f00c7af9f0000022000dd
:1045b000010020006011b800cf9a97004faede00d6
:1045c000050250008c8258000c0359008c8359005e
:1045d000d49f9f00e59f9f00f69f9f0087a79f00a5
:1045e0005fa89700efa897007fa997008fb1970069
:1045f0000000420081804a0002014b0083814b0091
:10460000d0b79f00e1b79f00f2b79f0083bf9f0024
:104610001faa9700afaa97003fab9700cfab9700b8
:104620000020e10001a8e10002b0e10003b8e100d0
:1046300006003400dfaa97004f9b970006805200c7
:104640000002b000b0a79f000b0033006000b8006c
:104650006011b80090af9f00a1af9f00b2af9f0064
:10466000c3af9f0040032000bfa09700808f500081
:1046700038003c00020037000001eb00b2a79f00a9
:1046800042052000bfa19700030151000000200057
:1046900001f82300f71107000006be002fa29700c3
:1046a0006120b900240b07000002be000203be0017
:1046b0000c00be0094b79f00a5b79f00b2b79f0043
:1046c000c7b79f00d10a07001fb29700afb297008b
:1046d0003fb39700cfb39700ae0f07000002be00b4
:1046e0000203be0094af9f00a5af9f00b6af9f002e
:1046f000c7af9f00bfa29700ff8f520015003c007c
:104700006022b8006033b8000800be000a01be0095
:10471000b90a07000000e0000e0032006000b80097
:104720007fa3970061006300e00f5000e08f580006
:1047300008003a007fa697008fae970061064600fa
:10474000e0864e00fca79f008daf9f006044b8003c
:104750006055b800afa697006168b900f60a070077
:104760000002be000203be00b4a79f00c5a79f00c1
:10477000d6a79f00e7a79f000802be000a03be005d
:10478000260c07000004be000205be007fa09700b3
:104790008fa89700eb0a07000002be000203be00cc
:1047a0003fa09700cfa097005fa19700efa19700cf
:1047b0001a0c07000002be000203be001fa89700eb
:1047c000afa897003fa99700cfa99700190b070042
:1047d0000802be000a03be00160b07001faa9700be
:1047e000afaa97003fab9700cfab97000b0b07002a
:1047f0000004be000205be006022b8006033b800ad
:104800007d0a07000000e00002003a0020022000bc
:1048100080bb88005faa97000800be000a01be00a6
:10482000be1107004f0778004f06be004f05be00bf
:104830004f04be000f04b10000000600cf23b000fb
:10484000889fbe008a9fbe008c9fbe008e1f78008e
:104850000004780001007800b2a79f00e39f9f004a
:1048600094af9f00850578008006eb000a003700b2
:10487000f808900038109000808f5000030031003d
:104880003180fb00710c98000200370008007800ae
:10489000090607001d00200001032000810f5000c1
:1048a000f3ff32000006eb006022b8006033b8006e
:1048b00094b79f00a5b79f00b6b79f00c7b79f00ea
:1048c000e1022000810f50002a003a00f808900011
:1048d00038109000808f5000090031003180fb00bb
:1048e000710c98006022b8006033b80094b79f0044
:1048f000a5b79f00b6b79f00c7b79f001900370044
:1049000008007800ec050700f6ff37001fb097009d
:10491000afb097003fb19700cfb197006100500052
:10492000e080580060015900e081590090b79f0075
:10493000a1b79f00b2b79f00c3b79f00f8089000cf
:1049400038109000808f5000030031003180fb0050
:10495000710c98000200370008007800d6050700a7
:104960001d00200001032000810f5000e7ff3200ee
:104970001c0020006011b800c29f9d00d39f9d00c5
:104980008004eb006022b8006033b800d4af9f0011
:10499000e5af9f00f6af9f0087b79f00090778003b
:1049a0000905780052003700810f50000c003a00d2
:1049b0000c00e00058003a005fa89700efa89700ad
:1049c0007fa997008fb1970090b79f00a1b79f0074
:1049d000b2b79f00c3b79f001c0020003b00370008
:1049e000010320005faa9700efaa97007fab970012
:1049f0008fb3970061024200e0824a0060034b00df
:104a0000e0834b00d4af9f00e5af9f00f6af9f005f
:104a100087b79f00c3072000830f570023003c0087
:104a2000810f500001003200dfac9700c276dd003c
:104a30000a00e0001100320085db2f008f82420067
:104a40008d8642006102b9000403b1000580b10007
:104a5000a2002000030020001d00be00d4b79f006c
:104a6000e5b79f00670a07005fb29700efb29700b3
:104a7000801e420081964a000500370086db2f0029
:104a80000f0343008d064300cf91de00828ebe00ef
:104a90000a05e8001d002000e90f55000b003a0050
:104aa0000d0747000005eb0008003700810f50009c
:104ab000060032004f909700df9097000000a000a2
:104ac000c0979f00d1979f00c9452000f80890002b
:104ad00038109000808f5000030031003180fb00bf
:104ae000710c98000200370008007800720507007a
:104af00002fd2f0000014100e1022000e90f5100fa
:104b0000a9ff3600810f5000a9ff32000c00e00021
:104b1000030032000a003700e002200008003700de
:104b20005faa9700efaa97007fab97008fb397001b
:104b300094b79f00a5b79f00b6b79f00c7b79f0067
:104b40000d00e00029003200000178000250a000b2
:104b500051062000810f510024003a008b0078009c
:104b600008007800e2fb07006022b8000600200081
:104b7000070028000400e1000588e1000690e1003c
:104b80000798e1000c003a000b00e000230032001f
:104b9000381290006000b8006011b8000400e00016
:104ba00005003200780890000000e900700c9800c1
:104bb0006000b8006011b8001fb29700afb2970054
:104bc0003fb39700cfb397000002420081824a00b2
:104bd00002034b0083834b0094b79f00a5b79f004f
:104be000b6b79f00c7b79f00130037000000e00072
:104bf00006003500381090000000e000030032008d
:104c0000780890000000e900700c98000d00e000aa
:104c100009003a006001200080bb88006022b800d3
:104c20006033b80008007800fe0407006000b80098
:104c30006011b800780337004f9e9500df9e950005
:104c4000e00f5600e08f5e0007003a009faa970031
:104c50006128b9001aef07006011b8000ff10700d2
:104c60006a0907006c0337001fb09700afb09700c8
:104c70003fb19700cfb197005faa9700efaa9700c6
:104c80007fab97008fb397000400e1000588e10037
:104c90000690e1000798e10020003a009000200013
:104ca000010020006011b8001fb29700afb297005a
:104cb0003fb39700cfb397000020e10001a8e100c7
:104cc00002b0e10003b8e10014003c00bfa297006d
:104cd000fe8f52000a003c000c00be000503780065
:104ce0000603e900030033008100d1000080d300f7
:104cf000fbff3700e00f5000e08f580007003a003c
:104d00009fab97006138b9008b0907000004be0013
:104d10000205be000c00be0060003700220020002b
:104d20006f9e9700110009000206d8000000ea00fb
:104d3000cf80de006109b9001fb29700afb29700c3
:104d40003fb39700cfb397000020e10001a8e10036
:104d500002b0e10003b8e1000f003400200220009f
:104d600080bb88009faa97006128b90072090700dc
:104d7000f4ff2f00f5ff2f00f6ff2f00f7fe2700ae
:104d8000a60a0700f4ff2f00f5ff2f00f6ff2f0003
:104d9000f7fe27008e0037006f9b970067f92f0002
:104da00007004300cf80de006109b9001fb2970001
:104db000afb297003fb39700cfb397000020e10058
:104dc00001a8e10002b0e10003b8e1000d003d00e0
:104dd0002002200080bb88009faa97006128b900ac
:104de000550907006022b8000600200007012000d6
:104df0008a0a07006022b800060020000701200090
:104e0000730037000a00e0000e0032000a0037008d
:104e10004274dd0086db2f000f03430008044300cb
:104e2000a2002000030020001800be007509070042
:104e3000008cbe000a05e800e80f5500f4ff3400be
:104e40000e07e8009fb39700e88f540002003c0073
:104e5000878f5400050034004270dd008cdb2f008a
:104e60000f064600000046005c0037009fb6970022
:104e7000f18f5600f8ff3c00e98f560009003a0018
:104e80001fa997006110b9002b0907000004be009c
:104e90000205be004f989500df989500290907008c
:104ea000470037009fb19700e88f51001c003c007d
:104eb0001faa97006120b9001f0907000004be0067
:104ec0000205be004f989500df9895001d09070068
:104ed0000002be000203be000800be000a01be00c0
:104ee0004e0a07000004be000205be009fb29700f4
:104ef000688012004200dd00e16f21000080400068
:104f00001000be000c0907000002be000203be0034
:104f10000800be000a01be0091090700be0237006a
:104f20003fa397007b004300d2ff2f009fb3970061
:104f300002b9b90002014000fe0f51000a003c0016
:104f40004f989500df9895000201e90003003300b7
:104f50008100d1000080d300fbff3700e00f50003c
:104f6000e08f5800bcff3a001fae97006160b900a7
:104f7000f10807000004be000205be004f9895002e
:104f8000df989500ef0807000002be000203be0094
:104f90000800be000a01be00200a07000004be008f
:104fa0000205be009fb697006a8056004200dd00f1
:104fb000e16f2100008040001000be00de08070005
:104fc0000002be000203be000800be000a01be00cf
:104fd000120a0700900237000e07e9004001be00e8
:104fe000e00f5100e08f5900fbff320094002000d9
:104ff0009fb09700110009008400d80001027800da
:105000000001eb00d2af9f000400e000520032002c
:105010009fb197000300e00001003d0069024200db
:10502000680012004200dd00e16f210000804000b6
:105030001005be0046db2f000f0343006044b8009c
:105040008002eb00d5af9f00c4a79f000800be0000
:1050500085047800060478000002be002d003700a9
:105060005806be000a01be000c00be00d4b79f0067
:10507000e5b79f002cee07005fb29700efb29700f4
:105080000403400085834800068cbe000a01be0070
:1050900000a02c00a1b92300f6b79f0087bf9f0096
:1050a000460807000002be000a01be000c00be0058
:1050b000d4b79f00e5b79f00cf0807000001be00ee
:1050c0005fb29700efb297000400be00cd08070062
:1050d0000002be000900e8007fb397008fbb970075
:1050e0005fae97008c8f540009003a00e00f530028
:1050f000e08f5b0006003a0080067800fd07b200f2
:10510000ddaf9f009fb09700e980500091b79f00ee
:10511000800478008e8f5400d1ff3a000404be0052
:105120004fa29700e00f5400e08f5c0006003200b1
:105130004270dd0082db2f000f01410000004100c2
:105140000888be000e07e800690212009fb19700b0
:105150008481410093b79f000002eb00c4a79f0029
:10516000dfae97006c003700cfa29700fd8252009f
:10517000c5a79f000e06e900fc07b2006033b80027
:10518000d6af9f00e7af9f004260dd0087db2f00b6
:105190008f83430080834300d7a79f001704be007e
:1051a0006055b800cd55dd004348de008b0570002a
:1051b0004d4ddd004340de000a057000cd44dd00aa
:1051c0000004eb005fa99700efa9970008044100d5
:1051d0008984490060054d00e0854d0004a02c0045
:1051e000a5b923006033b8000440e10005c8e10020
