:020000040000fa
:080000000002040000000000f2
:020000040000fa
:040008002a040000c6
:020000040000fa
:04000c002a040000c2
:020000040000fa
:040010002a040000be
:020000040000fa
:040014002a040000ba
:020000040000fa
:040018002a040000b6
:020000040000fa
:04001c002a040000b2
:020000040000fa
:040020002a040000ae
:020000040000fa
:040024002a040000aa
:020000040000fa
:040028002a040000a6
:020000040000fa
:04002c002a040000a2
:020000040000fa
:040030002a0400009e
:020000040000fa
:040034002a0400009a
:020000040000fa
:040038002a04000096
:020000040000fa
:04003c002a04000092
:020000040000fa
:040040002a0400008e
:020000040000fa
:040044002a0400008a
:020000040000fa
:040048002a04000086
:020000040000fa
:04004c002a04000082
:020000040000fa
:040050003203000077
:020000040000fa
:04005400ec030000b9
:020000040000fa
:04005800a4030000fd
:020000040000fa
:04005c002a04000072
:020000040000fa
:040060002a0400006e
:020000040000fa
:040064002a0400006a
:020000040000fa
:040068002a04000066
:020000040000fa
:04006c002a04000062
:020000040000fa
:040070002a0400005e
:020000040000fa
:040074002a0400005a
:020000040000fa
:040078002a04000056
:020000040000fa
:04007c002a04000052
:020000040000fa
:040080002a0400004e
:020000040000fa
:040084002a0400004a
:020000040000fa
:040088002a04000046
:020000040000fa
:04008c002a04000042
:020000040000fa
:040090002a0400003e
:020000040000fa
:040094000a0300005b
:020000040000fa
:040098002a04000036
:020000040000fa
:04009c002a04000032
:020000040000fa
:0400a0002a0400002e
:020000040000fa
:0400a4002a0400002a
:020000040000fa
:0400a8002a04000026
:020000040000fa
:0400ac002a04000022
:020000040000fa
:0400b0002a0400001e
:020000040000fa
:0400b4002a0400001a
:020000040000fa
:0400b8002a04000016
:020000040000fa
:0400bc002a04000012
:020000040000fa
:0400c0002a0400000e
:020000040000fa
:0400c4002a0400000a
:020000040000fa
:0400c8002a04000006
:020000040000fa
:0400cc002a04000002
:020000040000fa
:0400d0002a040000fe
:020000040000fa
:0400d4002a040000fa
:020000040000fa
:0400d8002a040000f6
:020000040000fa
:0400dc002a040000f2
:020000040000fa
:0400e0002a040000ee
:020000040000fa
:0400e4002a040000ea
:020000040000fa
:0400e8002a040000e6
:020000040000fa
:0400ec002a040000e2
:020000040000fa
:0400f0002a040000de
:020000040000fa
:0400f4002a040000da
:020000040000fa
:0400f8002a040000d6
:020000040000fa
:0400fc002a040000d2
:020000040000fa
:040100002a040000cd
:020000040000fa
:040104002a040000c9
:020000040000fa
:040108002a040000c5
:020000040000fa
:04010c002a040000c1
:020000040000fa
:040110002a040000bd
:020000040000fa
:040114002a040000b9
:020000040000fa
:040118002a040000b5
:020000040000fa
:04011c002a040000b1
:020000040000fa
:040120002a040000ad
:020000040000fa
:040124002a040000a9
:020000040000fa
:040128002a040000a5
:020000040000fa
:04012c002a040000a1
:020000040000fa
:040130002a0400009d
:020000040000fa
:040134002a04000099
:020000040000fa
:040138002a04000095
:020000040000fa
:04013c002a04000091
:020000040000fa
:040140002a0400008d
:020000040000fa
:040144002a04000089
:020000040000fa
:040148002a04000085
:020000040000fa
:04014c002a04000081
:020000040000fa
:040150002a0400007d
:020000040000fa
:040154002a04000079
:020000040000fa
:040158002a04000075
:020000040000fa
:04015c002a04000071
:020000040000fa
:040160002a0400006d
:020000040000fa
:040164002a04000069
:020000040000fa
:040168002a04000065
:020000040000fa
:04016c002a04000061
:020000040000fa
:040170002a0400005d
:020000040000fa
:040174002a04000059
:020000040000fa
:040178002a04000055
:020000040000fa
:04017c002a04000051
:020000040000fa
:040180002a0400004d
:020000040000fa
:040184002a04000049
:020000040000fa
:040188002a04000045
:020000040000fa
:04018c002a04000041
:020000040000fa
:040190002a0400003d
:020000040000fa
:040194002a04000039
:020000040000fa
:040198002a04000035
:020000040000fa
:04019c002a04000031
:020000040000fa
:0401a0002a0400002d
:020000040000fa
:0401a4002a04000029
:020000040000fa
:0401a8002a04000025
:020000040000fa
:0401ac002a04000021
:020000040000fa
:0401b0002a0400001d
:020000040000fa
:0401b4002a04000019
:020000040000fa
:0401b8002a04000015
:020000040000fa
:0401bc002a04000011
:020000040000fa
:0401c0002a0400000d
:020000040000fa
:0401c4002a04000009
:020000040000fa
:0401c8002a04000005
:020000040000fa
:0401cc002a04000001
:020000040000fa
:0401d0002a040000fd
:020000040000fa
:0401d4002a040000f9
:020000040000fa
:0401d8002a040000f5
:020000040000fa
:0401dc002a040000f1
:020000040000fa
:0401e0002a040000ed
:020000040000fa
:0401e4002a040000e9
:020000040000fa
:0401e8002a040000e5
:020000040000fa
:0401ec002a040000e1
:020000040000fa
:0401f0002a040000dd
:020000040000fa
:0401f4002a040000d9
:020000040000fa
:0401f8002a040000d5
:020000040000fa
:0401fc002a040000d1
:020000040000fa
:040200002a040000cc
:020000040000fa
:040204002a040000c8
:020000040000fa
:040208002a040000c4
:020000040000fa
:04020c002a040000c0
:020000040000fa
:040210002a040000bc
:020000040000fa
:040214002a040000b8
:020000040000fa
:040218002a040000b4
:020000040000fa
:04021c002a040000b0
:020000040000fa
:040220002a040000ac
:020000040000fa
:040224002a040000a8
:020000040000fa
:040228002a040000a4
:020000040000fa
:04022c002a040000a0
:020000040000fa
:040230002a0400009c
:020000040000fa
:040234002a04000098
:020000040000fa
:040238002a04000094
:020000040000fa
:04023c002a04000090
:020000040000fa
:040240002a0400008c
:020000040000fa
:040244002a04000088
:020000040000fa
:040248002a04000084
:020000040000fa
:04024c002a04000080
:020000040000fa
:040250002a0400007c
:020000040000fa
:040254002a04000078
:020000040000fa
:040258002a04000074
:020000040000fa
:04025c002a04000070
:020000040000fa
:040260002a0400006c
:020000040000fa
:040264002a04000068
:020000040000fa
:10040000cfba21000eff27000e0188000000000077
:10041000000020000000e000020032000001200087
:1004200020028800140007000c0107000000e00013
:1004300003003a0080472700010020000200370037
:100440000000200001002000810f70000100320038
:100450000f000700000020000000e0000200320052
:1004600000000200000000005874020000000000bc
:100470000040da000000fe00402d20000000e000f7
:1004800002003200002020009001880000000600d9
:10049000a1028800800478000000eb001f003700f4
:1004a000e284440054a0b4009905ba00e2844400f8
:1004b00054a0b4009906ba00e284440054a0b400e9
:1004c0000006eb00476fde00fd07b200ae018800ba
:1004d000636ce10003003a000ad801000000eb0061
:1004e0000e003700606ce10008003a00004deb00a0
:1004f0000a05e800020039003420ec000af0a000f0
:100500008b05e900f9ff3e00040037006168e10057
:10051000010032000086eb000b00070019c7ba008b
:100520000e04e0001905ba0003003a000a00e000da
:10053000dbff3a0000000600fe07b200ae028800b2
:100540008a047800f5ff37000cd0a300e20f4d00bd
:100550001c003b0089027800354dba000a05e8000e
:10056000020039003420ec000af0a0008b05e900fd
:100570000f003200254dba000a05e80002003900dc
:100580003420ec000af0a0008b05e90008003200de
:100590000c00e0000600320015cdba000a05e800a4
:1005a000020039003420ec000af0a0008b05e900bd
:1005b0008984e80054a0b4000b00e000e2ff3a0098
:1005c000000006009902ba00055d78008b05e9007d
:1005d000f7ff3200c82ade00055d78008b05e900d0
:1005e000f3ff32000c00e000f1ff320019ddba0029
:1005f000eeff3700026204000000000064620400a5
:1006000000000000b661040000000000e64a04009b
:1006100000000000809fbe003200f8003400f800a7
:1006200010002000a00188000020200000d0fe0063
:100630000000fa000368a90000808000118080009b
:1006400061004000e0804800008088001180880040
:100650000080fa003400f9003200f9004f00be00bb
:10066000004006003600f800809fbe00829fbe005a
:10067000849fbe00869fbe003200f8003400f80060
:1006800010002000a00188000020200000d0fe0003
:100690000000fa009bd0bf000004e00021003a00f7
:1006a000308080000000e900411280008140780025
:1006b000824c210000004100014878009ad0bf0020
:1006c0008080fb0030808000808f50000a00340062
:1006d0002180800030808000008040001040780041
:1006e0000080fb0040128800308080000000e8009d
:1006f000308088000b003700408080000000e00060
:1007000005003200428080009ad0bf00804078000f
:10071000804c21000200010010c0b3009bf0b70024
:100720002148a9000080fa003400f9003200f900e5
:100730004f03be004f02be004f01be004f00be007f
:100740003600f900004006003600f800809fbe0029
:10075000829fbe00849fbe00869fbe003200f800cc
:100760003400f80010002000a001880000202000c4
:1007700000d0fe000000fa000188a9000800370040
:100780001111800000202000008060000000e000c7
:1007900007003a00362f07000000fb0020118800f8
:1007a000108180000000e000f5ff3a0001003700f2
:1007b000000000000080fa003400f9003200f90067
:1007c0004f03be004f02be004f01be004f00be00ef
:1007d0003600f900004006003600f800809fbe0099
:1007e000829fbe00849fbe00869fbe003200f8003c
:1007f0003400f80010002000a00188000020200034
:1008000000d0fe000200fa000168a90004003700d1
:1008100030118000004f78001e407800ba2e07008b
:1008200010118000610060000000e000f8ff3a0055
:100830000080fa003400f9003200f9004f03be00d6
:100840004f02be004f01be004f00be003600f9004f
:10085000004006000040da000000fe000000050035
:1008600014002000a2033700f4ff2f00a00337007c
:100870000001be00240007000470a70003f0a100df
:100880006509b100160032000d0035006828e1004e
:1008900006003500f0ff2f00f1ff27000300e00005
:1008a00013003b000100280000000500000040008c
:1008b000818048008502e900fcff3a00080037000b
:1008c000f88f420002003c008000eb0000000500b1
:1008d0008100d1000080d3008502e800fcff3a00cf
:1008e0000300e00002003b0060001000e080180000
:1008f000000006004f89de00820178009703370070
:100900006011b800a5033700c70ade00f107b20086
:10091000f50fb20008003200e1cf420002003200c1
:100920000170a00024000500810f7000010032005a
:100930000408050044000500810f700002003a0021
:10094000140005008502e9000000400081c0480055
:10095000fcff3b000170a000240005006022b800ed
:10096000060220000000d0008180d2000482d20064
:100970008582d2000000a0000202520083825a0049
:10098000030031000202420083824a000000a100fd
:100990000603e900f3ff3a000000060007f827000d
:1009a000078361000638e10004003a00f7072000e1
:1009b000878361008703710001003a0003f0a20001
:1009c000889fbe008a9fbe008c9fbe00470ade0043
:1009d0000480a100c71ade000580a10007002800de
:1009e0000785600087856100f70f20000720e10080
:1009f0009e0032000728e1009c00320001067800ca
:100a00000400e000b4003200f70720008780600097
:100a10000170a0000500e000c0003200f7072000d0
:100a2000878161000370a000050652000f003a00a4
:100a30000b50e1000b0032000308e10002003a0015
:100a40000200e1007e00320002045000838458005e
:100a5000040031000001fd008101fd008402fd0061
:100a60008a05fd006044b800210037000520e10040
:100a700005003d000001fd008101fd008402fd0034
:100a80008a05fd00050652007a60e1000500350088
:100a90000170a1004722dd00848070008a80700010
:100aa000630037006044b800ef02660007ff2f00c4
:100ab000070666000500e00006003400f08312001f
:100ac0008714dd000511de00071bdd000601710043
:100ad0008519de007060e10005003500090478002a
:100ae00082047800030178008001eb007006560054
:100af0000b50e10003003a000200400083804800f0
:100b00000400370060041400e0841c000200580058
:100b1000838058000188a300060032008100d100c4
:100b20000080d3008984d3000884d3000402e80045
:100b3000270037000178a30025003a000100e000fb
:100b4000030032008186cf00698656000a00370014
:100b50008c0020000000e00004003a00090078004a
:100b6000880478000004eb00700252008086cf00f9
:100b70000d0646000c06e9007060e1000600350035
:100b80008000780009007800880478000004eb00f9
:100b900070065600700252000c00e0000c00340099
:100ba0008c08dd00f00316000703de00868070006d
:100bb0000c00dd00074bde00060070008c4cdd00f1
:100bc0000743de00868474000c44dd000c025200f2
:100bd0006120e1002000350061016000070028006d
:100be00087816400f7ff2700878364000703740090
:100bf0000300e000060032008203730004003200ac
:100c00000000e800e08048000188a3000e003a00e0
:100c1000f70f20000720e1004a003d000170a1000d
:100c20004722dd00810072008a8070000000be0053
:100c30004f06be004f05be004f04be000000060078
:100c40006000b800faff37008100d1000080d300b7
:100c50000402e800eeff3700040178008901740007
:100c6000a10107008a807000f1ff3700f70107003b
:100c7000070278000001fd008101fd00f30107007b
:100c800087027800850372000778a3000400320011
:100c90000001fd008101fd0006020700e4ff3700ae
:100ca000850362000768a300080032000b50e100d2
:100cb00003003200f0ff2f00f1ff2700dcff3700b8
:100cc0000001fd008101fd00d9ff37000468a30089
:100cd000d7ff3200faff3700f8ff27008883600053
:100ce0000b003a000000e00009003a0083036400b2
:100cf00082837300020032000200be00ccff370086
:100d00000b50e100ceff3a000200be00c8ff3700e2
:100d100014002000810064003eff3700f8ff270028
:100d20008883610004003a000200e00002003a00fb
:100d30008c007800beff370015002000830164009e
:100d400039ff370001f827000000200081007500fe
:100d5000b7ff3700889fbe008a9fbe008c9fbe00f1
:100d60001b0020000202be00058668000600280065
:100d7000060666004709de00f20fb200820032006c
:100d80000243e80080003200c729de00f30fb20002
:100d90007d0032000343e8007b003200f107b2001f
:100da0000170a000f507b2000570a000c708dd00c3
:100db0004903de00868070004700dd00c72add00a1
:100dc0004923de00868272004722dd0003055100c0
:100dd00004035000858358000300310000004000e8
:100de000818048000a05e9008c1f78008a9fbe00b8
:100df00004005000858058000402420085824a00a9
:100e000000004000818048000005eb000004be00a7
:100e10006033b8000406be000d48e1005600310002
:100e2000110009004dccd8000c01b8000d02b8002b
:100e30008481410060824a008283530003045c0085
:100e400084845c0060055d000a00e00025003a0033
:100e5000800578000d40e1004900310088007800ed
:100e600007007800110009004d88d8000c01b80077
:100e70000d02b8008481410060824a0060031100c5
:100e800083835b0004045c00e0845c000900e000f4
:100e900021003a004f01be000300e0002b003200a9
:100ea000e3016000070673008c81710001003200cd
:100eb000640070004200de004e5edd000c00700039
:100ec000c258de0001e0a00083010700cf017800d6
:100ed000818071004f06be004f05be004f04be006a
:100ee000000006008c8343000d044c00e0844c009d
:100ef00060054d000000e9000a00e000d4ff320068
:100f00008c8343000d044c00e0844c0060054d00d0
:100f10000000e900ceff37000c0343008d834b0037
:100f200060044c00e0844c000000e9000900e0008f
:100f3000d8ff32000c0343008d834b0060044c004b
:100f4000e0844c000000e900d2ff37004200de00e0
:100f50004e5edd000c007000c258de0001e0a00013
:100f6000cf0178000300e000daff320060001000db
:100f7000e0801800d7ff3700f0ff2f00aaff3700ee
:100f8000f0ff2f00b9ff37000404be002f01070057
:100f9000870678000004fd008104fd002b01070096
:100fa000078366000678a300030032000960a700eb
:100fb0000800be002c0037000d78a30002003200ac
:100fc0000800be00280037000778a30026003a007a
:100fd00001f0a10009f0a1000668a300030032009f
:100fe000f1ff2700f0ff2f00baff37000d68a300c4
:100ff000030032000800be008c807000b5ff37008f
:101000000768a30007003a000648a3000300320067
:10101000f1ff2700f0ff2f00aeff37000d48a300bf
:10102000030032006000b8008c807000a9ff370018
:101030000748a3000400320001f827000000200048
:101040008c807000a3ff3700760107000004fd00cc
:101050008104fd0002057800720107000802be004d
:101060008a01780059ff37000160a00012022000b9
:101070003285880097ff37000100e000120032003f
:101080000500e00010003200889fbe008a9fbe006d
:101090008c9fbe000006eb0001f8a30003003200a5
:1010a00060001000e08018000cf0a00005f8a3001c
:1010b0000300320060021200e0821a000cf0a2006d
:1010c0008005eb0041ff37006000b800020005001a
:1010d000038368000700280007036300470ade0057
:1010e0000480a100c71ade000580a100f70f2000d0
:1010f0000720e100420032000728e10040003200f2
:10110000889fbe008a9fbe008c1f7800f107b20046
:10111000f307b2000400e000640032000170a00098
:101120000500e000680032000370a0008505420061
:10113000eb07b1000204b8000302b8008484440045
:1011400060854a00020ab800848444000a854a0087
:10115000030ab80004054500040033000804d00069
:101160008984d2000a85d2008b05e9006158e1002c
:101170003d00350002102000090161000308200035
:1011800089816100f7072000878364000886730067
:10119000c84cde00c853dd00878474004855de006b
:1011a0000300e000060032008203760004003200f3
:1011b0008904e80060054d000a88a3000c003a008d
:1011c000f70f20000758e10044003d000a70a1001d
:1011d000c75ddd000a8575008a007300090078008c
:1011e0004f0678004f05be004f04be000000060009
:1011f0000a05d1008984d3008b05e800f0ff370091
:10120000881f780006047800900007000702780025
:101210000001fd008101fd008c00070087027800bd
:10122000850372000778a300050032000001fd006d
:101230008101fd009f0007004f04780000000600b8
:10124000850372000748a30003003200f0ff2f005f
:10125000f1ff2700f8ff37000000200001f8270009
:1012600088807000f4ff3700880178004848dd006e
:10127000808171004848de00c850dd000100700028
:10128000c850de00060478000b0178001600070045
:1012900088807000d2ff37000500e00005003200b2
:1012a000170020003a0007009dff370081037000ff
:1012b000f9ff3a00860078004f0678004f05be001f
:1012c0004f04be000000050083037100f9ff3200e7
:1012d000270020002e00070094ff370001f82700a8
:1012e00086807000f4ff37000100e0002600320025
:1012f000610111007810e10023003c006022b80079
:101300007010e100040035008002780001007800d0
:101310008000eb00700151000200e0000900340081
:1013200070031100062add00822ade008603dd003c
:10133000878272000200de00860bdd00070070006d
:101340008208de0084817100f4ff270004826200bd
:1013500084817100040028008482620061026000c0
:1013600005f0a600000006000482710007003200ac
:101370000000e800e0804800000006000002be0017
:101380006000b800efff37006000b8000000060002
:10139000889fbe000004eb006138e10016003a00af
:1013a0000100e00008003a00c800de004800dd004f
:1013b000880020000100e00003003a00c800de00c1
:1013c0004800dd00680444008184cf00e9845400b3
:1013d000060034008908dd00f08314008703de0076
:1013e000878070000900dd000904440061021400d8
:1013f0004f04be00000006000300e00008003a00b1
:10140000c811de004811dd00880020000300e00064
:1014100003003a00c811de004811dd0068044400f2
:101420008384cf00e9845400060034008919dd006c
:10143000f08314008713de00878171000911dd003d
:1014400009044400e1021400e9ff370027002000ee
:1014500001f0a70017002000470bde00f60fb200d6
:10146000040032000643e8000a0032004702b300dd
:101470000000060001037800f607b20006037000c2
:1014800002003a000703b300000006008702b30021
:101490000000060001037800f607b20006037000a2
:1014a000020032000770a000000006000760a000e4
:1014b000000006000478a300040032000578a300b1
:1014c000030032000168a30001003a000200be00e0
:1014d0000160a000000006008101700027003200ba
:1014e0008002eb0001f8a30003003200600010004e
:1014f000e080180015002000f407200002024200de
:1015000020003400f7032000870360000604200059
:101510000003630002082000000161004700de00b4
:10152000c909dd0000807100c708de000600e00088
:101530000800320087037100060032001000b0007e
:101540000180b0000188a30002003200c108de0063
:101550000402e800f107b200f30f20000320e100cd
:1015600003003d004722dd008100720029003700a2
:1015700001f827000000eb00260037006000b800eb
:1015800000000600680212007f20e1000200340023
:101590006000b8001f0037006011b8007020e10043
:1015a0000400350080017800010078008000eb0025
:1015b000700252000400e00009003400f003120041
:1015c0000719dd008419de000703dd008681710044
:1015d0000400de00070bdd00060070008408de005a
:1015e000f7ff27008383630087037100060028004c
:1015f00003036300070032000700e00003003a0025
:101600006101600002817300020032001000b0002e
:101610000180b0000500a6000000060001f0a00057
:10162000000006004f0ade004709de00f107b200a5
:10163000f20fb2000b003200f207b1000170a000ff
:10164000c708dd00c901de00838070004700dd00af
:101650000400a6000000060060001000e0801800f2
:1016600000000600810f700001003a000000060033
:101670008182cf000500e00010003e008082cf0094
:10168000ee8242007028e1000400390007003e00ad
:10169000800078000000eb000e003700708312001d
:1016a0008600de000500dd000a003700708352006e
:1016b0008600dd000000eb0006003700e2825200e9
:1016c0008508dd00708312000603de00868070004e
:1016d0000500dd007507b0000501ea000400a60062
:1016e0000000060060001000e08018000000060006
:1016f000889fbe008a9fbe00841f78007c00070080
:101700004f00780011003300f0ff2f00838f6c0032
:1017100006003b00040565000a00a700080037002a
:1017200009f0a6001000200008003700820f5400c6
:10173000838f5c00030039001000200001003e0090
:101740000000200009f0a7000000ea004f05be00dd
:101750004f04be000000e00000000600881f780073
:10176000030478000300e00007003d006000100063
:10177000e080180060011900e081190002003b00c0
:1017800001f02d00030037000400070008f0a70057
:1017900001f0a0004f04780000000600889fbe0002
:1017a0008a9fbe00008270000402710004827100f2
:1017b000260032000004be000200be006011b80026
:1017c0006b092000950220000182cf000a00390039
:1017d0000541b1000082cf00070039000541b1008a
:1017e0000982cf00040039000541b1000882cf0012
:1017f000010039000541b1000542520012003200db
:101800000a003b0082817100610164008100d10007
:101810000080d3008984d3000884d3008b05e800be
:101820000442e800f7ff3a000700370008044400cc
:1018300089844c0000004800818048008b05e90045
:101840000442e900f9ff3a00030007004f05be001b
:101850004f04be000000060081002000618055009a
:101860000b003d000b00200061fe2f000100e10095
:101870001d00340082817100610164008904d1007f
:101880000884d3000000e800faff3a00710020004d
:101890006100640003007000020060000900320073
:1018a00061044400e0844c000988a5000500320072
:1018b0008b05e8006808e10002003a008904d100c5
:1018c0000884d300f20f20000258e10005003d001b
:1018d000c75ddd00f907b200898075000800780057
:1018e000000006000bf827008b00780000000500c0
:1018f0000004be0004fc07000003be000405be0097
:101900000200be0000fc0700844f750000000600c6
:101910000000fa0068815700cfb89700e50507007e
:101920000080fa0000000600220107007e01070087
:1019300050040700050507002f050700860407006f
:10194000e005070059060700000637000000fa000e
:1019500068815700cfb89700d60507000080fa00cd
:1019600000000600130107006f0107004104070093
:10197000f604070020050700770437000000fa008e
:1019800068815700cfb89700ca0507000080fa00a9
:101990000000060064010700ca0537008000eb0064
:1019a000fb003700800078001000200002022000b9
:1019b000828f500004003200e9805000e48f500014
:1019c000010036000000eb0000000600889fbe000a
:1019d0008a1f7800000578000a047800984478008f
:1019e0000805e8000900fb00eeff07000000e0002a
:1019f000f9ff3a00b0c2b30080cf540005003200b6
:101a0000d0c2b3008000eb0080cf540005003a0044
:101a1000020037008000eb000100370011002000b9
:101a20000804e8000000eb0003003700ea00b900fa
:101a3000020050000003b0003801fb0003fd2f003e
:101a400082814100e98f5100f8ff36000100e0007b
:101a500001003a000000ea004f0578004f04be0084
:101a60000000060080007800100020000202200024
:101a7000828f500004003200e9805000e48f500053
:101a8000010036000000eb0000000600889fbe0049
:101a90008a9fbe00000578008a0478001944780007
:101aa0000905e8000800fb00eeff07000000e00069
:101ab000f9ff3a00b0c2b300804f54000400320076
:101ac000d0c2b300804f540006003a000200370035
:101ad0000004eb0001003700180020008904e80032
:101ae000010037000004eb006000b800060037007a
:101af000a20020000300200051160700cfd5de0011
:101b00000a0050008b8058003905fb000a03b10021
:101b1000e90f5500f6ff36000800e00002003a0029
:101b200060001000e08018004f05be004f04be00aa
:101b30000000060080007800100020000202200053
:101b4000828f500004003200e9805000e48f500082
:101b5000010036000000eb0000000600889fbe0078
:101b60008a1f780080047800090578001a447800fc
:101b70008a04e8000800fb00eeff07000000e00018
:101b8000f9ff3a00b0c2b300804f540004003200a5
:101b9000d0c2b300804f540006003a000200370064
:101ba0000004eb0001003700180020000a05e800df
:101bb000010037000004eb006000b8006011b800bd
:101bc00009003700a4002000050020006033b800a1
:101bd000461907004fcade000900500084805800f3
:101be0000401590084815900ba04fb000903b100c3
:101bf000e98f5400f3ff36000800e00006003a00c9
:101c00006022b8006033b8000000520081805a00a2
:101c100002015b0083815b004f0578004f04be002a
:101c2000000006008001780002003700b1597800fa
:101c30000201e9000200e000fcff3a00000006009b
:101c40000000fa0068815700cfb8970055000700e0
:101c50000080fa0000000600881f78000004780069
:101c600008007800e4110700080078004f047800ad
:101c70000000060080007800040037003104e00016
:101c800002003a0000005100000006000101780047
:101c90000108a300f9ff3a008101780031017800c2
:101ca000f4ef2f00020242000281ea00020162000a
:101cb0000408280004016100f7ff32008300780067
:101cc000010178003104e000fdff3a0000005100fe
:101cd000000006003c00fa00889fbe008a9fbe00fc
:101ce0000004be00020578000f0078004004b10037
:101cf0001d0009000018eb0088a79f00d8af9f00c7
:101d00000080eb00e0af9f006022b8006033b800b5
:101d1000c0fb2f000f004000fa1007001200200047
:101d20008a007800c0fb2f000f0040007b0f0700e7
:101d30006fb29700ffb297000fbb97009fbb970051
:101d4000dfad97000fa597000900e0000900320001
:101d50000a855500cfd5de000402450085824d007e
:101d600006834d0087834d000100320004044400c7
:101d7000880c78004f05be004f04be000080fa00ba
:101d8000000006000001eb00d2ff07007e153700bf
:101d900012002000cfff07007b1537002200200033
:101da000ccff37008201780001017800f1ff2700a5
:101db000bf113700ec874700889fbe008a9fbe0096
:101dc0008c9fbe008e1f780000067800010478000a
:101dd000180790002805900098067800cdb79f005e
:101de000b805900012027800920290002203900041
:101df000b20390000400be000601be004f18de00d2
:101e00006011b8008000eb00d0b79f00e1b79f00e1
:101e1000f2b79f0083bf9f00800478000900e000b4
:101e2000060032006000b8006011b80004025000e3
:101e30008582580006035900878359000e00e00090
:101e4000020035000d10a100cdb79f000900e00091
:101e500005003a004fb097000028a30002003a00a6
:101e60000038a300020032008a00e90001003700b8
:101e70008a007800f8815700a2002000080078004e
:101e80005f0307000900e00003003a00cfb09700ad
:101e90000128a300080032000000e900008145008d
:101ea000b1c2b3000900e00001003200d1c2b300aa
:101eb00001497800060037000138a3000400320011
:101ec0000000e9008080450002c2b300824878002b
:101ed000480190000201e9000001510080804500a6
:101ee0004fb297008a0178000c0078003a0507008d
:101ef0009c0090000188a30004003200980090002c
:101f0000810f500001003d00010078004f0778006c
:101f10004f06be004f05be004f04be00cf00b1000b
:101f200000000600000006002f04b000889fbe00dd
:101f30008a9fbe008c9fbe008e1f7800b09f9f00be
:101f4000a1a79f00a37f9f0011007800d0a79f004a
:101f500091009000f1a79f00afa19700a30190000e
:101f6000c3a79f002fa2970044029000a49f9f0048
:101f7000afa29700350790001204780092049000f9
:101f800022059000b20590006022b8006033b800ce
:101f90000800be000a01be008d1407000000e0002a
:101fa00003003d000bf0a200d0c2b30004003700d4
:101fb0005fa397000628a30008003200b0c2b30058
:101fc000004f7800cfa397008703e90087af9f00f9
:101fd00010002000e0a79f000f003700dfa097004f
:101fe0000138a3000800320000c2b300004f78009f
:101ff0004fa197000201e90082af9f00130020006b
:10200000e3a79f00040037004fa2970084af9f0012
:102010008002eb00e5a79f000800be000a01be0099
:10202000c0ff0700f4ff2f00f5ff2f00f6ff2f0081
:10203000f7ff27000402600085826000060361004c
:10204000878361006000b8000200200003ff2700c2
:102050000020e10001a8e10002b0e10003b8e100c6
:1020600010003a002f7b97008600fb001104b1009e
:10207000efa3970007004700f98f500002003e00d1
:1020800041b821000100370081b82100f2fe0700ad
:1020900080b82100f7fe0700efa097000101400083
:1020a000140037000020e10001a8e10002b0e100c7
:1020b00003b8e100120036002f7997008200fb0080
:1020c0001104b100efa1970003004700f98f500001
:1020d00002003e00c1b821000100370001b9210013
:1020e000ddfe070000b92100e2fe07006fa29700a5
:1020f000040140005fa29700cfa19700490237007a
:102100006022b8006033b8000800be000a01be00bb
:102110002f1407000000e000680032006000b800e3
:102120000200200003ff2300d0af9f00e1af9f001b
:10213000f2af9f0083b79f008006eb000802be004d
:102140000a03be0094b79f00a5b79f00b6b79f00d3
:10215000c7b79f00070037008d06e8000800be00e3
:102160000a01be00d0af9f00e1af9f00f2af9f0019
:1021700083b79f006022b8000600200047022400b9
:102180005fa89700efa897007fa997008fb19700ed
:10219000b11507000004be000205be000002be002b
:1021a0000203be001fb09700afb097003fb1970089
:1021b000cfb19700061407000000e000e6ff3d00e5
:1021c0000006eb005fac9700efac97007fad970087
:1021d0008fb597002500370040ed2f00808f560007
:1021e00019003d000c00e00016003a006022b80023
:1021f00006002000073524001fb09700afb09700fd
:102200003fb19700cfb19700931507000002be00c1
:102210000203be0094b79f00a5b79f00b6b79f000a
:10222000c7b79f006022b8000600200007352400d1
:102230000800be000a01be00871507000004be00aa
:102240000205be001c0020006022b800060020002d
:10225000470224000800be000a01be00cf14070098
:102260000004be000205be008d06e9000802be00a3
:102270000a03be001fb09700afb097003fb19700b0
:10228000cfb19700d21307000000e000d2ff350065
:102290000800be000a01be00d0af9f00e1af9f0062
:1022a000f2af9f0083b79f001fb49700afb49700b1
:1022b0003fb59700cfb59700080037006022b800ff
:1022c0000600200007ff2300d4af9f00e5af9f006a
:1022d000f6af9f0087b79f008006eb00af7a9700ac
:1022e0000500fb0064100700b07f9f007fa39700ec
:1022f000600020000600e000010035007fa097008c
:1023000071c6b300bf7b970081cf53000a003a002b
:10231000ffa097000100e000cb013200cb013700a5
:102320008d0f5000cf013c0090b79f0052c6b30004
:10233000e2cf9f001e003700bf799700e3cf9f00d8
:102340000200370064c6b300e4cf9f000000e8003d
:1023500090b79f0060c6b300efca970080cf5200cd
:1023600013003a000d00e00008003d006000b800d6
:102370000200200003ff2300d0af9f00e1af9f00c9
:10238000f2af9f0083b79f008006eb0061c6b300e9
:10239000e1cf9f0070c6b3003f799700804f510096
:1023a000030032009fb197008d81410093b79f00d9
:1023b0005faa9700efaa97007fab97008fb39700b3
:1023c000d4b79f00e5b79f00f6b79f0087bf9f0077
:1023d0000800be000a01be0090af9f00a1af9f00a1
:1023e000b2af9f00c3af9f000006eb000802be0023
:1023f0000a03be00e49f9f00f59f9f0086a79f00f1
:1024000097a79f00310037005fb29700efb29700a7
:102410007fb397008fbb97001fa89700afa89700c6
:102420003fa99700cfa997005c14070090180700f8
:102430000004be000205be00a2130700800278005f
:10244000b5a79f005fb29700efb297007fb39700e8
:102450008fbb97000800be000a01be00fe140700f3
:102460001faa9700afaa97003fab9700cfab97008a
:10247000f91307000002be000203be0007f0a2002d
:1024800094af9f00a5af9f00b6af9f00c7af9f005e
:102490006022b80006002000470224005fb09700c9
:1024a000efb097007fb197008fb997003b140700fa
:1024b0000002be000203be00d4b79f00e5b79f0034
:1024c000f6b79f0087bf9f000c06e8009fb29700f9
:1024d000850f5600ccff35006f9c9700ff9c97003e
:1024e0000fa597009fa597006022b8000600200066
:1024f000470124005fb09700efb097007fb19700cd
:102500008fb99700d41407000002be000203be007a
:10251000d4b79f00e5b79f00f6b79f0087bf9f0025
:102520001fa89700afa897003fa99700cfa99700d1
:10253000271307000000e0000f0035005fb297008e
:10254000efb297007fb397008fbb97001fa897004b
:10255000afa897003fa99700cfa997001c130700c9
:102560000000e00011003a00bfa297000508a30098
:10257000080032000d0037006000b8006011b8009c
:10258000d0b79f00e1b79f00f2b79f0083bf9f00c5
:10259000060037006022b8006033b800d4b79f004f
:1025a000e5b79f00f6b79f0087bf9f005fb2970017
:1025b000efb297007fb397008fbb97000800be0073
:1025c0000a01be00aa1307000002be000203be00fb
:1025d00094af9f00a5af9f00b6af9f00c7af9f000d
:1025e0006022b80006002000470224005fa8970080
:1025f000efa897007fa997008fb197009614070066
:102600000004be000205be000002be000203be00c0
:102610001fa89700afa897003fa99700cfa99700e0
:10262000f01207000000e000090035008d06e80008
:1026300060c6b300efca970080cf520008003a008e
:102640001fb397000603e80096b79f0011003700fc
:102650005fac9700efac97007fad97008fb5970008
:1026600050c6b3006fc99700804f510009003a006f
:102670000802be000a03be00d4b79f00e5b79f0062
:10268000f6b79f0087bf9f008002eb00d5af9f0089
:10269000070037000800be000a01be00d0b79f0047
:1026a000e1b79f00f2b79f0083bf9f00ddaf9f009f
:1026b0006fa697000001eb00b2a79f00c29f9f008a
:1026c000e29f9f009d9f9f00680037005fb29700c8
:1026d000efb297007fb397008fbb97001fa89700ba
:1026e000afa897003fa99700cfa99700ab130700a9
:1026f000df1707000004be000205be00f11207004c
:10270000e90f50000100340090002000dfa1970085
:102710000348a3000c003a000000e0000a003a0061
:1027200071c6b3003f7a9700814f520006003a000d
:10273000dfaa97000500e00003003d003fa39700db
:102740008606e80021003700cf9b97000700e000d5
:102750000c003a00dfa897000100e00009003d00ee
:102760000c014700e1c2b300014978000c06e80003
:102770000fa997000201e90082af9f00130020001b
:10278000c39f9f000c014700bfa6970003003700be
:1027900001c3b300015978008d06e9000d00e00087
:1027a000fbff3a003fa29700040646008c0047005a
:1027b00005c3b300854840000c06e8000480ea0029
:1027c0000fab97000003430086af9f005fb29700f6
:1027d000efb297007fb397008fbb97000800be0051
:1027e0000a01be001c1407001faa9700afaa970099
:1027f0003fab9700cfab9700171307000002be0056
:102800000203be0007f0a20094af9f00a5af9f0097
:10281000b6af9f00c7af9f006022b800060020003f
:10282000470224005fb09700efb097007fb1970098
:102830008fb99700591307000002be000203be00c3
:10284000d4b79f00e5b79f00f6b79f0087bf9f00f2
:10285000dfaa97008502e900d5af9f006f9b970024
:102860000603e800e69f9f00bda79f00ef9b97002f
:102870001fb09700808f530005003d00afa0970068
:102880004100900065005000800f56008fff390016
:102890009f9e97004f9997000200e00007003a00c2
:1028a000dfa197000348a300040032000c0047009a
:1028b000e1c2b300014878000c06e8000c004700b4
:1028c0000048eb0051c6b3006fca9700814f520019
:1028d00036003a00af9a97008500e90001014700f1
:1028e0000049eb008001eb000d00e00002003d001c
:1028f0008d06ea00130020002200200081037800ea
:102900008faa9700000478000b003700810378003d
:1029100007034700a4002000110009008406d80026
:10292000010278008006780000c3b300004b42002b
:102930000201e9008502e9008700e9000d00e000de
:10294000f2ff3a000200e000f0ff3c0085af9f007c
:102950000800780001024700b2c2b3000300e000a3
:1029600001003200d2c2b300024a78000101e9003e
:1029700082004700af7997000302fb001404b10006
:1029800053c6b300f90f520001003e0053c4b30018
:10299000834878000faa97000482e90084af9f0063
:1029a000820f560001003d00abfc0700dfa297003c
:1029b00063806200e20f500015003a000fab9700f1
:1029c0000600e000120034000e007800a9fc0700a9
:1029d000060037008fab97008700470080804000db
:1029e00000014700924878000000e900efa097003e
:1029f000810f5000f7ff3d00010047000fa997002d
:102a0000010320005b0d07000001eb00c2a79f003f
:102a10000e00780097fc07005fa29700cfa19700f7
:102a2000000178008e0078003f9897006a02070046
:102a30004f0778004f06be004f05be004f04be0092
:102a40002f04b1000000060010002000e48f4600b3
:102a500033fe3d0090b79f0053c6b300e3cf9f0005
:102a600053fe37000d00e00036fe350090b79f00a2
:102a700046fe37000200fa00889fbe008a9fbe0013
:102a800080057800010478000200780018019000a9
:102a90002805900098007800b1bf9f00b80490000e
:102aa0000200e000020035000110a100b1bf9f004c
:102ab000ea815700820020008a0078001002780026
:102ac0009002900020039000b0039000080078006e
:102ad0004b0007003fb99700f0006100040032008e
:102ae0000000e9008080440002c3b30082487800ff
:102af0003fb99700e8006100040032000000e900df
:102b00008080440002c2b3008248780048019000ef
:102b10000201e90000015100808044003fba9700a3
:102b20008a0178000b0078002b0207009b009000c0
:102b30000188a3000400320098009000810f50002b
:102b400001003d00010078004f05be004f04be00ab
:102b50000080fa0000000600ea874700889fbe0058
:102b60008a9fbe008e1f7800000478000300780062
:102b70007287570084e2260055c72600049fbe00d6
:102b8000c3962200030f78006c875700004feb00bc
:102b900011059000a1049000910578000200e0006a
:102ba00002003200020778000100370072875700e8
:102bb0000000e00002003a000e0078002dfc070043
:102bc0000a00e000030035008a0f500001003600c3
:102bd0000a0078000b027800890178000001780073
:102be0008e00780008007800fb0107004f0778008e
:102bf0004f05be004f04be00af00b100000006004c
:102c0000f4874700889fbe008a9fbe008c9fbe004d
:102c10008e1f78000605be000404be0081bf9f0021
:102c200082b79f00f3b79f00b0009000e1b79f000c
:102c30001301780092b79f0090069000400090002a
:102c40000000e900000678000d00e00001003d00f2
:102c50001d002000efb19700008041000048eb000c
:102c60001e0020001f0037000c06e9000fb097007f
:102c7000cf80de006109b900a0b79f00b1b79f0007
:102c8000c2b79f00d3b79f000203be000002be0080
:102c90000800be000a01be00b21407000007780059
:102ca000efb097000c80400003c3b3000348470017
:102cb0008d06e9000fb897000000e90080bf9f0073
:102cc0002fb29700bfb297004fb39700dfb39700c2
:102cd0000800be000a01be009b1407000205be00ea
:102ce0000004be000c00e0000d003400e00f5400b2
:102cf000e08f5c00e00f5d00e08f5d00daff3a00de
:102d00000d00e000d8ff3c008fb897000100e00004
:102d1000030034001fb197000218a300d2ff3a004d
:102d20000e00e00002003a00ffb197001340a1003e
:102d30000c0078004f0778004f06be004f05be001c
:102d40004f04be004f01b100000006000200fa006f
:102d5000889fbe008a9fbe000005780001047800ad
:102d60000200780018019000a804900098007800f4
:102d7000b1bf9f00b80590000200e00002003500de
:102d80000110a100b1bf9f00ea815700a2002000fe
:102d900089007800100278009002900020039000d3
:102da000b00390000800780095ff070048019000ec
:102db0000201e90000015100808045003fba970000
:102dc000890178000a007800830107009a009000ca
:102dd0000188a3000400320098009000810f500089
:102de00001003d00010078004f05be004f04be0009
:102df0000080fa0000000600fa874700889fbe00a6
:102e00008a9fbe008c9fbe008e1f780080047800d1
:102e100001047800820578001801900028059000d0
:102e200018077800b80090000200e00002003500aa
:102e30000e10a10001003700120020007000670092
:102e4000e0b79f000b0032001b0278009b0290004d
:102e50002b039000bb039000e00f5200e08f5a005c
:102e6000e00f5b00e08f5b00020032008a86e90021
:102e7000010037008a067800e8026700f5b79f0076
:102e8000010032008d06e9001b0278009b029000d1
:102e90002b039000bb039000e4af9f00f5af9f00b1
:102ea00086b79f0097b79f00480690000c06e90080
:102eb0000c8040000048eb00efb297007fb2970013
:102ec0008903780081047800d8af9f00020478005d
:102ed0008bbf9f008a057800034578002b003700e0
:102ee0000c06e9006fab97006f006300e90f50001c
:102ef00002003c000003b000010037007005b00084
:102f00000a03fb001604b100f90f53000c003e0049
:102f1000000378000650a0001606b100f90f530018
:102f200007003e00b4b79f00a5b79f00c7b79f003a
:102f3000580d0700cfb39700afb297003fb297008c
:102f40000c834400004b78000804e9008d06e9007a
:102f50006fa89700ffa897000fb197009fb1970047
:102f6000460020008301d1000281d3008180d3007c
:102f70000080d3000603e900faff3a00e0af9f00ab
:102f8000f1af9f0082b79f0093b79f00e10f5600fb
:102f90000f0034006fa89700ffa897000fb19700ab
:102fa0009fb19700e00f5000e08f5800e00f5900ec
:102fb000e08f5900caff3a000800e000c8ff3c005b
:102fc0000d00e000020034000e18a300c4ff3a0018
:102fd00089007800f4b79f00870478005fac970001
:102fe0008a4178000b0578008fbd97000500e0004e
:102ff000140032001b0278009b0290002b0390000b
:10300000bb039000e4af9f00f5af9f0086b79f0021
:1030100097b79f00e00f5200e08f5a00e00f5b006f
:10302000e08f5b00070032000c06e9000c804000d6
:10303000034878000c06e9000c80400002c3b3008e
:1030400002487800ffb297000500e000040032005b
:103050000c06e9000c80400002c2b3000248780070
:10306000480190000201e9000c0151008c804000f1
:103070000e0278008a01780009007800d600070067
:10308000990090000188a30004003200980090008d
:10309000810f500001003d00010078004f077800cb
:1030a0004f06be004f05be004f04be00af01b10089
:1030b000000006008201780001017800f1ff27007e
:1030c000230d3700881f78000004780000082000d6
:1030d000808f50001a00350010082000808f5000ab
:1030e0000d00340030082000808f500014003a009a
:1030f0009200780068805000000978001002780083
:103100009002900020039000b0039000049cbe0049
:103110000694be00080037009202780064805200d6
:103120000009780090009000100078004610070019
:10313000009cbe000294be00100020000100370079
:103140000000eb004f047800000006008408200017
:10315000848f50001d0032000d003c001408200038
:10316000848f50002700320002003c000408200039
:103170000400370024082000848f500036003200fd
:1031800044082000848f500047003a003a0037007e
:10319000040a2000848f50002900320004003c0003
:1031a00004092000848f50003f003a002a003700b5
:1031b000020c2000828f500033003200020f2000ea
:1031c000828f500038003a002f0037009380e900ca
:1031d0000200e00005003200810978001102fb00c6
:1031e000cfa2de00612bb9002c00370081097800e6
:1031f000114278000482fb008002eb006033b800cb
:103200002600370013027800e40052000200e000bc
:1032100006003200810978001102780091029000c6
:103220004fabde00860378001c0037008109780070
:1032300011027800910290006033b8001700370047
:103240009380e9008109780011027800cfa2de00a6
:10325000612bb9001100370093027800e88052001a
:1032600081097800110278009102900021039000fa
:10327000b1039000090037009380e9000200e000ec
:1032800002003200efff37009380e90081097800e7
:10329000110278008002eb006033b8000498be0091
:1032a0000690be0010000500000005004408200044
:1032b000848f50002500320008003c0014082000d4
:1032c000848f50001400320024082000848f5000a6
:1032d00024003200040820000c00370004092000fc
:1032e000848f50001f00320004003c00840820003e
:1032f000848f500024003a000e003700040a20009a
:10330000848f500011003200040c2000848f500084
:103310001d003a000d0037009380e9008109780014
:103320009100780001087800cf91de008288be000d
:10333000140037009380e90081097800910078003b
:1033400001087800824878000e0037009380e90079
:1033500081097800910078000108780082087800df
:10336000080037009380e900810978009100780017
:10337000010878006112b900612bb9008498be0081
:103380008690be001000050000000500889fbe006a
:10339000000478004800900082047800808f540078
:1033a0000100360080047800090178005800900080
:1033b0001cfa0700580090000900400050049800d3
:1033c000c800900089845000490498000048eb0030
:1033d0004f04be0000000600f2874700889fbe0031
:1033e0008a9fbe008c9fbe008e1f780080047800ec
:1033f0000105780002047800830578006107620007
:1034000002003a008b0f54000800390008017800d0
:103410008a00780009007800dcff07008b0f540059
:1034200002003900880578001e0037000886550024
:103430000c017800f00f5600010036000201200058
:10344000010220007e805700ca0a07008c0678001f
:103450000500370002012000fe80570009007800b7
:10346000caff0700f0865600ef8f5600f9ff3e00b6
:103470004461de0000ff2f008091b9000c01410083
:10348000fe80570009007800c0ff07000e00e00032
:1034900004003a00080178008a00780009007800ea
:1034a000baff07000b0078004f0778004f06be00f8
:1034b0004f05be004f04be002f01b1000000060002
:1034c0000000050000000500000005000001780074
:1034d0000040eb008080fb0081804000e3b52100cc
:1034e00081814100134278000404e00004003a00a6
:1034f000f0b5210081004000114078000000060076
:1035000092017800934f520005003a00f0b5210077
:1035100081004000114078000309e80001003700f5
:103520000040e800ea4f5000eaff360000000600c5
:10353000f6874700889fbe008a9fbe008c9fbe0012
:103540008e1f78000005780001047800830578005c
:10355000040678000000eb00c0b79f008080eb00fd
:10356000d1b79f00e0b79f00f2b79f00000820008e
:1035700080bf9f0098007800010078008004eb0075
:10358000010037008904e800304178000204e000bf
:103590000300320053c2b300834f5100f9ff3a00d9
:1035a0000900e00004003200090178000a007800f8
:1035b00076ff0700188c44001807780050c2b3004b
:1035c0009e4f10003f013a000e07e8000e0c7800f5
:1035d00010003700cfb097000100a0000b003700ab
:1035e000cfb097000110a00008003700cfb09700bf
:1035f0000120a00005003700cfb097000130a000e7
:1036000002003700cfb097000140a000c1b79f0073
:10361000000ce8001800780090407800b2c2b300b7
:1036200082cf5000f1ff320007003c0002c2b3001d
:1036300082cf5000f0ff320032c2b30082cf500080
:1036400007003a00efff3700d2c2b30082cf50002c
:10365000e0ff320002c3b30082cf5000e0ff32002f
:10366000a2c2b30082cf50000d003a00000ce80067
:103670001c80e900000e780010007800e0b79f0081
:103680000000e0000f003d00cfb097000100a20055
:10369000c1b79f000000ea00e0b79f0009003700b3
:1036a000caf80700e0b79f0001003700000ce800ef
:1036b000180078009000fb000103b100e98f500072
:1036c000faff36004fb097000008a3000200320056
:1036d0000010a100c0b79f0018007800e1c2b3003d
:1036e00090cf100016003a008000eb00d1b79f0089
:1036f0000000e800000c7800a1c2b30090cf1000d9
:1037000006003a00000ce8001c80e900000e78007a
:1037100010007800d0b79f0009003700abf8070011
:10372000d0b79f0001003700000ce80018007800b7
:103730009000fb000103b100e98f5000faff360052
:103740000800780061ff07008046780018007800c4
:103750001000fb00480b070091062000810f50006d
:103760003800320012003c0041062000810f50005a
:10377000340032000a003c0011062000810f500086
:103780002000320031062000810f5000a0003200de
:1037900051022000810f5000bc003a00b4003700f5
:1037a00071062000810f5000b8003c0088003700ef
:1037b00001072000810f50005c00320007003c0030
:1037c000e1062000810f50007a003200f10620004f
:1037d000810f5000ad003a0039003700510720003a
:1037e000810f50002700320081072000810f500018
:1037f0004200320031072000810f5000a3003a0040
:103800008f0037008d80fb000c01780000fe2f0038
:103810000f0040002bfe07000000e000a80032006f
:1038200018007800000ce8009041780002fe2f009c
:103830000f014100f88057000a007800c00b070014
:103840000e0037008d80fb008c01780012002000f4
:1038500000fe2f000f0040003cfe07000000e000cb
:1038600097003200180ce80002fe2f000f01410003
:10387000f88057000a0078004ef907008084440061
:10388000900037008d80fb008c0178000001eb0078
:1038900000fe2f000f0040002cfe07000000e0009b
:1038a00087003200180ce80002fe2f000f014100d3
:1038b000f88057000a00780024fd0700efff37006a
:1038c0008d80fb008c0178000001eb0000fe2f00d2
:1038d0000f0040001dfe07000000e00078003200ed
:1038e000180ce80002fe2f000f014100f88057007d
:1038f0000a0078005ffc0700e0ff37008d80fb00c6
:103900008c0178000001eb0000fe2f000f0040004a
:103910000efe07000000e000690032001800780089
:10392000000ce800904178001c0037008c01780002
:103930000001eb00010f200000fe2f000f004000ef
:1039400002fe07000000e0005d003200180ce800f5
:103950000fb097009fb097002fb19700bfb19700ad
:10396000e00f5000e08f5800e00f5900e08f590041
:1039700009003a00cfb597006fb4970060b52100f9
:10398000bcf807000b02780088017800000178007d
:1039900061b521004700370083c7b30002fe2f0046
:1039a0000f014100f88057000a00780012fd07005f
:1039b000b2ff37000b8144008d80fb008c01780042
:1039c00000fe2f000f00400038fe07003c003700cb
:1039d0008d80fb000c01780000fe2f000f004000de
:1039e000b8fd07000000e000350032001800780044
:1039f000000ce8009041780002fe2f000f0141000a
:103a0000f88057000a00780047f907009bff37004d
:103a100000c8b30080cf560029003a00180ce80017
:103a20001c80e900000e780010407800e0df9f0065
:103a300013002000e2fd2f000f01410008003700b5
:103a400000c8b30080cf56001d003a00180ce800f3
:103a50001c80e900000e78008001eb001001780066
:103a6000f88057000a0078003bfc070083ff37000e
:103a700000c8b30080cf560011003a00180ce800cf
:103a80004fb29700efb19700080037000e0c780096
:103a90000000eb00c0b79f00e0b79f000080eb0084
:103aa000d0b79f000002eb008401780012002000d4
:103ab000c1b521000a00780047fe07006fff3700fc
:103ac000180ce800090078004f0778004f06be0088
:103ad0004f05be004f04be006f01b100000006009c
:103ae0008200fa00889fbe008a1f780000057800d7
:103af00082047800c13f9f000004eb0010003700f3
:103b00000902780088017800a2f72f000f01410018
:103b100081f72f008f8040000a00780084fe0700a4
:103b200008004000880f500004003d00b004200051
:103b300040dd88000084eb000400370000047800ba
:103b40004f3897001004e000edff3a0008007800bd
:103b50004f0578004f04be000080fa000000060008
:103b6000800078001000200002022000828f5000a8
:103b700004003200e9805000e48f5000010036005c
:103b80000000eb00000006000800fa00889fbe005d
:103b90008a9fbe00000478008105780078089000b4
:103ba000b8109000810f500003003100b084fb007a
:103bb000700c9800030037000800780076090700b1
:103bc00080047800b0022000808f5400040032008e
:103bd0000005eb00d0022000808f54001b003a004b
:103be000d982b20009f0a7008904ea008904e9003b
:103bf0004f4dde0078089000b8109000810f500003
:103c000003003100b084fb00700c98000300370003
:103c100008007800600907008004780000fd2f008c
:103c200009004000e90f5000080036000b00e000da
:103c300006003200381090000000e000030032005f
:103c4000780890000000e900700c980000fd2f003b
:103c5000090040008005eb00e90f5000130036001a
:103c6000381090000000e0007200320078089000e8
:103c70000000e900700c98006e003700ea59b900a6
:103c80008005410078089000b8109000810f500026
:103c900003003100b084fb00700c98000300370073
:103ca000080078003c0907008004780000fd2f0020
:103cb00009004000e90f500003003e00b1cc200095
:103cc000818f5500edff3400615ab900612bb900b6
:103cd00084bf9f0095bf9f00a6bf9f00b7bf9f00f6
:103ce0001f003700a4002000050020006033b8004a
:103cf0000fb897009fb897002fb99700bfb99700ea
:103d0000fa100700cfcdde000082440081824d0012
:103d100002834d0083834d000403b1000580b10090
:103d20000680b1000780b10084bf9f0095bf9f004f
:103d3000a6bf9f00b7bf9f0078089000b810900002
:103d4000810f500003003100b084fb00700c98001c
:103d500003003700080078000f090700800478008e
:103d600000fd2f0009004000e90f500017003e0041
:103d7000d07a240011ae270042e12a0073142000fb
:103d80000fba97009fba97002fbb9700bfbb970051
:103d90000020e10001a8e10002b0e10003b8e10069
:103da000d0ff34000900370078089000810f5000e0
:103db00003003100b084fb00700c98000300370052
:103dc00008007800f4080700800478000903b100b7
:103dd000b8109000e98f5400f3ff36000100e000b6
:103de00003003200780890000000e900700c980091
:103df0000a00e000160032006000b8006011b80050
:103e00000fba97009fba97002fbb9700bfbb9700d0
:103e10000402500085825800060359008783590028
:103e200084bf9f0095bf9f00a6bf9f00b7bf9f00a4
:103e3000070037006000b8000200200003002800df
:103e400080bf9f0091bf9f00a2bf9f00b3bf9f0094
:103e50000fb897009fb897002fb99700bfb9970088
:103e60004f05be004f04be000080fa0000000600af
:103e70000f04b000889fbe008a9fbe008c9fbe00ca
:103e80008e1f780000067800b1a79f00c29f9f0098
:103e9000a3a79f00b49f9f00fc0890003c109000d7
:103ea000808f5000040031003180fb00710e9800bb
:103eb0000007eb000d0037000c007800b608070083
:103ec000fbff3700fc0890003c109000808f5000f2
:103ed000030031003180fb00710e980002003700b2
:103ee0000c007800ac0807001e0020000103200031
:103ef000810f5000f3ff32006022b8006033b80039
:103f000094af9f00a5af9f00b6af9f00c7af9f00c3
:103f10008002eb0095a79f00e1022000810f500076
:103f200023003a00fc0890003c109000808f500065
:103f3000050031003180fb00710e98006044b8002c
:103f40006055b800110037000c0078009208070097
:103f5000faff3700fc0890003c109000808f500062
:103f6000030031003180fb00710e98000200370021
:103f70000c0078008808070061045400e0845c00ad
:103f800060055d00e0855d001e002000010320004b
:103f9000810f5000efff320098af9f00a9af9f0044
:103fa000baaf9f00cbaf9f001500200095a79f00e0
:103fb0006022b8006033b800d4af9f00e5af9f0027
:103fc000f6af9f0087b79f008002eb00a59f9f0080
:103fd0006022b8000600200007ff2300d49f9f0046
:103fe000e59f9f00f69f9f0087a79f006044b80051
:103ff0006055b8006033b800f6a79f0087af9f00f8
:1040000084003700e1022000810f50000e003a00ca
:104010009fa397000700e0008b003a005fa897007d
:10402000efa897007fa997008fb1970090af9f00ee
:10403000a1af9f00b2af9f00c3af9f00110020004f
:1040400091a79f006a00370091032000810f500064
:10405000030034000050a0009dfa2f008086460027
:1040600070002000010020006011b8005faa9700d6
:10407000efaa97007fab97008fb397000020e10075
:1040800001a8e10002b0e10003b8e1000c003c002f
:104090007fa397008fab97004438dd00cc30de0063
:1040a000810070004430dd004feade0000814600f0
:1040b00081014a00f2a79f0083af9f003f003700b5
:1040c000d0002000010020006011b8005faa970016
:1040d000efaa97007fab97008fb397000020e10015
:1040e00001a8e10002b0e10003b8e1001d003c00be
:1040f0006022b8000600200007fb23005f989700ad
:10410000ef9897007f9997008fa19700d20d070035
:104110000002be000203be00d49f9f00e59f9f00e7
:10412000f69f9f0087a79f006168b900910c070068
:104130005f9a9700ef9a97007f9b97008fa3970055
:10414000c50d07000002be000203be000800be004d
:104150000a01be00c60c07000004be000205be0036
:10416000160037000d00e00014003200af9a9700ef
:104170000500e00011003a006022b80006002000af
:1041800007fe23005f989700ef9897007f999700ac
:104190008fa19700b00d07000002be000203be0011
:1041a0000800be000a01be00b10c07000004be00fa
:1041b0000205be0016002000a69f9f005fa8970082
:1041c000efa897007fa997008fb19700610040008a
:1041d000e080480060014900e0814900d0af9f00c5
:1041e000e1af9f00f2af9f0083b79f001e00200049
:1041f000fc0890003c109000808f500003003100bc
:104200003180fb00710e9800020037000c0078002e
:10421000e10707000dfd2f0080864600e98f56005c
:1042200078ff3600800078000150a0001106b10030
:10423000e58f500073ff3600e1022000810f50002f
:1042400073ff320001003700e00220000e00e000a2
:104250001e003a003c1090000000e0000300320015
:10426000fc0890008100e900710e9800bf9897004b
:104270000100e0000e0032000000e0000300320008
:10428000fc0890008100e900710e98001fa19700c2
:104290000200e0000a0032000000e00008003200e6
:1042a0007c0890000000e900700e980004003700c0
:1042b0006022b8006033b8000c0078009107070056
:1042c000afa197006118b900510037001fa29700f5
:1042d0000400e00016003a005faa9700efaa9700da
:1042e0007fab97008fb3970094af9f00a5af9f005f
:1042f000b6af9f00c7af9f00110037007fa19700a6
:104300008fa997004418dd00cc10de0081007000fa
:104310004410dd00f0a79f0081af9f0061024200c2
:10432000e0824a0060034b00e0834b000500370049
:104330005faa9700efaa97007fab97008fb3970013
:104340008006780070002000010020006011b80095
:104350000020e10001a8e10002b0e10003b8e100a3
:10436000e6ff34000d0078000050a0000107200097
:10437000810f500015003a00bf9897000c0078009c
:1043800001fe07006022b800060020000700280098
:104390000400e1000588e1000690e1000798e100d3
:1043a00014003a00bf9997000300e00007003a00ac
:1043b0006022b8006033b8000c0078005107070095
:1043c0006000b8006011b8003c0137003c1290005a
:1043d0006000b8006011b8000400e0000500320081
:1043e0007c0890000000e900700e98006000b800a2
:1043f0006011b8007fa297008faa9700e00f5200cb
:10440000e08f5a0007003a00afa297006128b90078
:1044100038f107006011b8002df307008a0b070080
:10442000260137001faa9700afaa97003fab97005d
:10443000cfab970068025200e0825a0060035b0035
:10444000e0835b002c0020000402d0008582d200b3
:104450000683d2008783d2000c06e900faff3a00f7
:104460000402400085824800060349008783490012
:10447000d4af9f00e5af9f00f6af9f0087b79f00c6
:10448000cf9a97000500ea00cf80de006109b900ed
:104490005faa9700efaa97007fab97008fb39700b2
:1044a0000020e10001a8e10002b0e10003b8e10052
:1044b0000f0034002002200040dd8800afa29700ea
:1044c0006128b900ab0b0700f4ff2f00f5ff2f00a8
:1044d000f6ff2f00f7fe2700df0c0700f4ff2f0088
:1044e000f5ff2f00f6ff2f00f7fe27001a00370018
:1044f0004f9b970067f92f0007004300cf80de0035
:104500006109b9005faa9700efaa97007fab9700f7
:104510008fb397000020e10001a8e10002b0e100a4
:1045200003b8e10039003d002002200040dd880092
:10453000afa297006128b9008e0b07006022b80077
:104540000600200007012000c30c07006022b8000d
:104550000600200007012000bf0c0700d70037002d
:104560006022b8000600200007fe23000800be00fd
:104570000a01be001b0b07000c0646008d864e008c
:104580000000e0000d00350061064600e0864e00a8
:104590006022b8000600200007ff23000800be00cc
:1045a0000a01be00ac0b07000002be000203be0001
:1045b0000800be000a01be00040037000802be0069
:1045c0000a03be000800be000a01be00a80b0700d7
:1045d0000004be000205be005fa89700efa8970088
:1045e0007fa997008fb1970061005000e0805800cc
:1045f00060015900e0815900d0af9f00e1af9f00fa
:10460000f2af9f0083b79f00020037007fa697009c
:104610008fae9700e00f5600e08f5e00d0ff3d00a8
:10462000fca79f008daf9f003fa29700cfa2de00a6
:10463000612bb90094af9f00a5af9f00b6af9f005c
:10464000c7af9f0000022000010020006011b800e9
:10465000cf9a97004faede00050250008c825800c2
:104660000c0359008c835900d49f9f00e59f9f0045
:10467000f69f9f0087a79f005fa89700efa897006d
:104680007fa997008fb197000000420081804a0007
:1046900002014b0083814b00d0b79f00e1b79f0020
:1046a000f2b79f0083bf9f001faa9700afaa970091
:1046b0003fab9700cfab97000020e10001a8e100dd
:1046c00002b0e10003b8e10006003400dfaa970061
:1046d0004f9b9700068052000002b000b0a79f00d9
:1046e0000b0033006000b8006011b80090af9f006d
:1046f000a1af9f00b2af9f00c3af9f004003200057
:10470000bfa09700808f500038003c0002003700a7
:104710000001eb00b2a79f0042052000bfa1970057
:10472000030151000000200001f82300e3110700fd
:104730000006be002fa297006120b9000d0b0700f4
:104740000002be000203be000c00be0094b79f0032
:10475000a5b79f00b2b79f00c7b79f00ba0a07006e
:104760001fb29700afb297003fb39700cfb3970047
:104770009a0f07000002be000203be0094af9f0024
:10478000a5af9f00b6af9f00c7af9f00bfa2970025
:10479000ff8f520015003c006022b8006033b80063
:1047a0000800be000a01be00a20a07000000e000e7
:1047b0000e0032006000b8007fa397006100630024
:1047c000e00f5000e08f580008003a007fa69700e5
:1047d0008fae970061064600e0864e00fca79f0062
:1047e0008daf9f006044b8006055b800afa6970039
:1047f0006168b900df0a07000002be000203be00c4
:10480000b4a79f00c5a79f00d6a79f00e7a79f005a
:104810000802be000a03be000f0c07000004be0021
:104820000205be007fa097008fa89700d40a07005a
:104830000002be000203be003fa09700cfa0970079
:104840005fa19700efa19700030c07000002be00d4
:104850000203be001fa89700afa897003fa99700ca
:10486000cfa99700020b07000802be000a03be0092
:10487000ff0a07001faa9700afaa97003fab970057
:10488000cfab9700f40a07000004be000205be008b
:104890006022b8006033b800660a07000000e0003c
:1048a00002003a002002200040dd88005faa970045
:1048b0000800be000a01be00aa1107004f077800d9
:1048c0004f06be004f05be004f04be000f04b100ee
:1048d00000000600cf23b000889fbe008a9fbe0064
:1048e0008c9fbe008e1f78000004780001007800c5
:1048f000b2a79f00e39f9f0094af9f0085057800bb
:104900008006eb000a003700f8089000381090008d
:10491000808f5000030031003180fb00710c980043
:1049200002003700080078001b0607001d00200069
:1049300001032000810f5000f3ff32000006eb005e
:104940006022b8006033b80094b79f00a5b79f00fd
:10495000b6b79f00c7b79f00e1022000810f50004b
:104960002a003a00f808900038109000808f50001c
:10497000090031003180fb00710c98006022b80002
:104980006033b80094b79f00a5b79f00b6b79f00eb
:10499000c7b79f001900370008007800fe05070020
:1049a000f6ff37001fb09700afb097003fb19700f8
:1049b000cfb1970061005000e080580060015900bd
:1049c000e081590090b79f00a1b79f00b2b79f0048
:1049d000c3b79f00f808900038109000808f5000f7
:1049e000030031003180fb00710c98000200370099
:1049f00008007800e80507001d00200001032000e2
:104a0000810f5000e7ff32001c0020006011b80049
:104a1000c29f9d00d39f9d008004eb006022b800e0
:104a20006033b800d4af9f00e5af9f00f6af9f00a2
:104a300087b79f0009077800090578005300370001
:104a4000810f50000c003a000c00e00059003a00c1
:104a50005fa89700efa897007fa997008fb19700f4
:104a600090b79f00a1b79f00b2b79f00c3b79f0048
:104a70001c0020003c003700010320005faa9700c3
:104a8000efaa97007fab97008fb3970061024200b7
:104a9000e0824a0060034b00e0834b00d4af9f00ec
:104aa000e5af9f00f6af9f0087b79f00c3072000c8
:104ab000830f570024003c00810f5000010032009a
:104ac000dfac9700c276dd000a00e0001200320081
:104ad00085db2f008f8242008d8642006102b90083
:104ae0000403b1000580b100a200200003002000f3
:104af0001d0078009d009000d4b79f00e5b79f008f
:104b00004f0a07005fb29700efb29700801e420085
:104b100081964a000500370086db2f000f03430013
:104b20008d064300cf91de00828ebe000a05e800ac
:104b30001d002000e90f55000b003a000d0747004b
:104b40000005eb0008003700810f5000060032001e
:104b50004f909700df9097000000a000c0979f0043
:104b6000d1979f00c9452000f808900038109000a8
:104b7000808f5000030031003180fb00710c9800e1
:104b800002003700080078008305070002fd2f00af
:104b900000014100e1022000e90f5100a8ff3600aa
:104ba000810f5000a8ff32000c00e000030032002b
:104bb0000a003700e0022000080037005faa9700d3
:104bc000efaa97007fab97008fb3970094b79f0031
:104bd000a5b79f00b6b79f00c7b79f000d00e000c4
:104be00029003200000178000250a0005106200088
:104bf000810f510024003a008b00780008007800f3
:104c0000e1fb07006022b800060020000700280032
:104c10000400e1000588e1000690e1000798e1004a
:104c20000c003a000b00e000230032003812900024
:104c30006000b8006011b8000400e0000500320018
:104c4000780890000000e900700c98006000b8003f
:104c50006011b8001fb29700afb297003fb3970042
:104c6000cfb397000002420081824a0002034b004a
:104c700083834b0094b79f00a5b79f00b6b79f00f2
:104c8000c7b79f00130037000000e00006003500a2
:104c9000381090000000e000030032007808900017
:104ca0000000e900700c98000d00e00009003a00d7
:104cb0006001200040dd88006022b8006033b80049
:104cc000080078000f0507006000b8006011b80008
:104cd000890337004f9e9500df9e9500e00f560038
:104ce000e08f5e0007003a009faa97006128b90094
:104cf00000ef07006011b800f5f007005209070047
:104d00007d0337001fb09700afb097003fb1970009
:104d1000cfb197005faa9700efaa97007fab9700eb
:104d20008fb397000400e1000588e1000690e100e0
:104d30000798e10020003a009000200001002000c8
:104d40006011b8001fb29700afb297003fb3970051
:104d5000cfb397000020e10001a8e10002b0e1001c
:104d600003b8e10014003c00bfa29700fe8f520080
:104d70000a003c000c00be00050378000603e900b1
:104d8000030033008100d1000080d300fbff370017
:104d9000e00f5000e08f580007003a009fab9700eb
:104da0006138b900730907000004be000205be00a7
:104db0000c00be0061003700220020006f9e9700ab
:104dc000110009000206d8000000ea00cf80de00d2
:104dd0006109b9001fb29700afb297003fb39700c7
:104de000cfb397000020e10001a8e10002b0e1008c
:104df00003b8e1000f0034002002200040dd8800ed
:104e00009faa97006128b9005a090700f4ff2f00f4
:104e1000f5ff2f00f6ff2f00f7fe27008e0a070090
:104e2000f4ff2f00f5ff2f00f6ff2f00f7fe2700fd
:104e3000910037006f9b970067f92f000700430030
:104e4000cf80de006109b9001fb29700afb29700b2
:104e50003fb39700cfb397000020e10001a8e10025
:104e600002b0e10003b8e1000d003d002002200087
:104e700040dd88009faa97006128b9003d0907001e
:104e80006022b8000600200007012000720a070017
:104e90006022b800060020000701200076003700dd
:104ea0000a00e0000f0032000b0037004274dd0002
:104eb00086db2f000f03430008044300a2002000fc
:104ec0000300200018007800980090005c0907009b
:104ed000008cbe000a05e800e80f5500f3ff34001f
:104ee0000e07e8009fb39700e88f540002003c00d3
:104ef000878f5400050034004270dd008cdb2f00ea
:104f00000f064600000046005e0037009fb697007f
:104f1000f18f5600f8ff3c00e98f560009003a0077
:104f20001fa997006110b900120907000004be0014
:104f30000205be004f989500df9895001009070004
:104f4000490037009fb19700e88f51001d003c00d9
:104f50001faa97006120b900060907000004be00df
:104f60000205be004f989500df98950004090700e0
:104f70000002be000203be000800be000a01be001f
:104f8000350a07000004be000205be009fb297006c
:104f9000688012004200dd00e1b221000080400084
:104fa0009000900010007800f20807000002be0098
:104fb0000203be000800be000a01be007709070018
:104fc000cd0237003fa397007b004300d2ff2f00a4
:104fd0009fb3970082b9b90002014000fe0f510053
:104fe0000a003c004f989500df9895000201e90007
:104ff000030033008100d1000080d300fbff3700a5
:10500000e00f5000e08f5800bbff3a001fae970042
:105010006160b900d70807000004be000205be00a9
:105020004f989500df989500d50807000002be0054
:105030000203be000800be000a01be00060a070007
:105040000004be000205be009fb697006a805600ad
:105050004200dd00e1b2210000804000900090009d
:1050600010007800c30807000002be000203be0063
:105070000800be000a01be00f70907009e023700c3
:105080000e07e900640050001001780090019000c4
:10509000e00f5100e08f5900f9ff3200940020002a
:1050a0009fb09700110009008400d8000102780029
:1050b0000001eb00d2af9f000400e0005500320079
:1050c0009fb197000300e00001003d00690242002b
:1050d000680012004200dd00e1b2210000804000c3
:1050e000100578009005900046db2f000f03430069
:1050f0006044b8008002eb00d5af9f00c4a79f00ba
:105100000800be0085047800060478000002be0096
:105110002f003700640444001806780098069000b9
:105120000a01be000c00be00d4b79f00e5b79f0087
:105130000aee07005fb29700efb297000403400049
:1051400085834800068cbe000a01be0000a02c002a
:10515000a1b92300f6b79f0087bf9f00260807006c
:105160000002be000a01be000c00be00d4b79f00c2
:10517000e5b79f00af0807000001be005fb29700cf
:10518000efb297000400be00ad0807000002be00a9
:105190000900e8007fb397008fbb97005fae9700d0
:1051a0008c8f540009003a00e00f5300e08f5b0041
:1051b00006003a0080067800fd07b200ddaf9f00d0
:1051c0009fb09700e980500091b79f00800478005d
:1051d0008e8f5400cfff3a000404be004fa2970008
:1051e000e00f5400e08f5c00060032004270dd00ea
:1051f00082db2f000f014100000041000888be0043
:105200000e07e800690212009fb1970084814100f7
:1052100093b79f000002eb00c4a79f00dfae97008a
:105220006f003700cfa29700fd825200c5a79f00f4
:105230000e06e900fc07b2006033b800d6af9f004d
:10524000e7af9f004260dd0087db2f008f834300c4
:1052500080834300d7a79f0017047800970490002d
:105260006055b800cd55dd004348de008b05700069
:105270004d4ddd004340de000a057000cd44dd00e9
:105280000004eb005fa99700efa997000804410014
:105290008984490060054d00e0854d0004a02c0084
:1052a000a5b923006033b8000440e10005c8e1005f
:1052b00006d0e10007d8e1000e0036000800be006d
:1052c0000a01be00200b0700d0af9f00e1af9f0096
:1052d00004a02c00a5b923006033b8000800be006c
:1052e0000a01be001f0b0700dfa39700808bbe00e2
:1052f000050037005fa097000888be006011b80065
:10530000d2af9f00e3af9f000e00e900f007b200ac
:10531000800f56000c003a008d0f56000f0032002f
:105320004260dd0083db2f008f814100008041005f
:105330009000900010007800e00f5000e08f5800bf
:10534000f4013200020037008d0f560003003200d6
:105350000c06e900fc07b200baff37005faa97000d
:10536000efaa9700e00f5200e08f5a001c003200b5
:105370009fb29700e982420095b79f008d06e90031
:10538000fd07b2008e8f56000e003a000d07e900af
:10539000fe07b2000e00e900f007b2004200dd0097
:1053a00086db2f000f03430000004300c270dd00c6
:1053b00081004300100178009001900031187100c5
:1053c000219071004268dd0083db2f008f81410056
:1053d000008041005faa9700efaa97000488be00f2
:1053e0009fb29700f18f52008eff3400f28f52006f
:1053f00009003a004269dd0086db2f000f034300fd
:1054000002014300e005270091082000b20f1000c0
:10541000a28f180083ff36008d037800a2b421000c
:105420000000eb0087004000f107b2008e8f5000b3
:1054300010003200c208dd0083db2f008f814100a5
:1054400081804100110478009104900064014100c2
:105450001202780092029000840f5400858f5c0045
:10546000040039000d003e000000e800e20f50008b
:10547000ecff3a001fb29700f20f520007003a000b
:10548000d7af9f006044b8006055b8008006eb00bd
:105490000800be000a01be00680037009900200025
:1054a0009fb29700fb8f520001003c0019002000c2
:1054b0004fa3970009034300c6a79f0010002000d8
:1054c0000900dd000000e9006101b900d2a79f00da
:1054d000e3a79f000aa02c00abb923008901780044
:1054e0008301e900030033008b85d1000a85d300d6
:1054f000fbff3700070478006000b800d0af9f00c2
:10550000e1af9f000a02be001fb597008705780033
:105510002e003700c240dd0086db2f000f03430062
:105520008100430011017800910190000203be0048
:10553000090678000c06e900030033008703d10058
:105540000683d300fbff37005fae9700efae9700f6
:105550000603460087834e008688be006fa0970032
:1055600083066000dfa09700028660000401be0091
:105570000c00be00d4b79f00e5b79f00f6b79f00b0
:1055800087bf9f00ae070700d0af9f00e1af9f002d
:105590000800e8005fb29700efb297007fb3970072
:1055a0008fbb97008b0f540006003a00e00f5300aa
:1055b000e08f5b0003003a0080057800fb07b20033
:1055c0006905550000047800f807b2008e0f5400fa
:1055d000d0ff3a008b0378009ab79f005fa897002e
:1055e000efa89700e00f5000e08f58008bff3200cb
:1055f0000e01e800f207b200870f510007003200e9
:105600004277dd0083db2f008f8141000e87410050
:10561000008fbe000207780080ff37000e00e9000f
:10562000f007b2004200dd0084db2f000f024200d1
:10563000000042001000a00078ff3700dfaa9700aa
:1056400005864600fc07b2008e0f560009003a009e
:105650000e07e800fe07b2000e02e9004222dd005c
:1056600086db2f000f03430004024300000aeb0017
:10567000341278006022b80056d62c00d71c2400c3
:10568000750807000004be000205be004266dd008a
:1056900087db2f008f8343000c8643001c007800bb
:1056a0009c009000360707000002be000203be0007
:1056b0000800be000a01be006d0707008d06e80065
:1056c000e28f5600ddff3a000004be000205be0076
:1056d0001fae97006160b900260707000002be00f8
:1056e0000203be000800be000a01be005a080700ff
:1056f0000002be000203be00d4a79f00e5a79f00e2
